{
  "_format": "hh-sol-artifact-1",
  "contractName": "LiquidityPool",
  "sourceName": "contracts/LiquidityPool.sol",
  "abi": [
    {
      "inputs": [
        {
          "internalType": "address",
          "name": "_protocol",
          "type": "address"
        },
        {
          "internalType": "address",
          "name": "_strikeAsset",
          "type": "address"
        },
        {
          "internalType": "address",
          "name": "_underlyingAsset",
          "type": "address"
        },
        {
          "internalType": "address",
          "name": "_collateralAsset",
          "type": "address"
        },
        {
          "internalType": "uint256",
          "name": "rfr",
          "type": "uint256"
        },
        {
          "internalType": "int256[7]",
          "name": "callSkew",
          "type": "int256[7]"
        },
        {
          "internalType": "int256[7]",
          "name": "putSkew",
          "type": "int256[7]"
        },
        {
          "internalType": "string",
          "name": "name",
          "type": "string"
        },
        {
          "internalType": "string",
          "name": "symbol",
          "type": "string"
        },
        {
          "components": [
            {
              "internalType": "uint128",
              "name": "minCallStrikePrice",
              "type": "uint128"
            },
            {
              "internalType": "uint128",
              "name": "maxCallStrikePrice",
              "type": "uint128"
            },
            {
              "internalType": "uint128",
              "name": "minPutStrikePrice",
              "type": "uint128"
            },
            {
              "internalType": "uint128",
              "name": "maxPutStrikePrice",
              "type": "uint128"
            },
            {
              "internalType": "uint128",
              "name": "minExpiry",
              "type": "uint128"
            },
            {
              "internalType": "uint128",
              "name": "maxExpiry",
              "type": "uint128"
            }
          ],
          "internalType": "struct LiquidityPool.OptionParams",
          "name": "_optionParams",
          "type": "tuple"
        },
        {
          "internalType": "address",
          "name": "adminAddress",
          "type": "address"
        }
      ],
      "stateMutability": "nonpayable",
      "type": "constructor"
    },
    {
      "inputs": [],
      "name": "CollateralAmountInvalid",
      "type": "error"
    },
    {
      "inputs": [],
      "name": "CollateralAssetInvalid",
      "type": "error"
    },
    {
      "inputs": [
        {
          "internalType": "uint256",
          "name": "decimals",
          "type": "uint256"
        }
      ],
      "name": "DecimalIsLargerThanScale",
      "type": "error"
    },
    {
      "inputs": [],
      "name": "DeltaNotDecreased",
      "type": "error"
    },
    {
      "inputs": [
        {
          "internalType": "uint256",
          "name": "quote",
          "type": "uint256"
        },
        {
          "internalType": "int256",
          "name": "delta",
          "type": "int256"
        }
      ],
      "name": "DeltaQuoteError",
      "type": "error"
    },
    {
      "inputs": [],
      "name": "IVNotFound",
      "type": "error"
    },
    {
      "inputs": [],
      "name": "InvalidAmount",
      "type": "error"
    },
    {
      "inputs": [],
      "name": "InvalidShareAmount",
      "type": "error"
    },
    {
      "inputs": [],
      "name": "IssuanceFailed",
      "type": "error"
    },
    {
      "inputs": [],
      "name": "NonExistentOtoken",
      "type": "error"
    },
    {
      "inputs": [],
      "name": "OptionExpiryInvalid",
      "type": "error"
    },
    {
      "inputs": [],
      "name": "OptionStrikeInvalid",
      "type": "error"
    },
    {
      "inputs": [],
      "name": "PRBMathSD59x18__AbsInputTooSmall",
      "type": "error"
    },
    {
      "inputs": [],
      "name": "PRBMathSD59x18__DivInputTooSmall",
      "type": "error"
    },
    {
      "inputs": [
        {
          "internalType": "uint256",
          "name": "rAbs",
          "type": "uint256"
        }
      ],
      "name": "PRBMathSD59x18__DivOverflow",
      "type": "error"
    },
    {
      "inputs": [],
      "name": "PRBMathSD59x18__MulInputTooSmall",
      "type": "error"
    },
    {
      "inputs": [
        {
          "internalType": "uint256",
          "name": "rAbs",
          "type": "uint256"
        }
      ],
      "name": "PRBMathSD59x18__MulOverflow",
      "type": "error"
    },
    {
      "inputs": [
        {
          "internalType": "uint256",
          "name": "prod1",
          "type": "uint256"
        }
      ],
      "name": "PRBMath__MulDivFixedPointOverflow",
      "type": "error"
    },
    {
      "inputs": [
        {
          "internalType": "uint256",
          "name": "prod1",
          "type": "uint256"
        },
        {
          "internalType": "uint256",
          "name": "denominator",
          "type": "uint256"
        }
      ],
      "name": "PRBMath__MulDivOverflow",
      "type": "error"
    },
    {
      "inputs": [],
      "name": "StrikeAssetInvalid",
      "type": "error"
    },
    {
      "inputs": [],
      "name": "TotalSupplyReached",
      "type": "error"
    },
    {
      "inputs": [],
      "name": "UnderlyingAssetInvalid",
      "type": "error"
    },
    {
      "inputs": [],
      "name": "WithdrawExceedsLiquidity",
      "type": "error"
    },
    {
      "anonymous": false,
      "inputs": [
        {
          "indexed": true,
          "internalType": "address",
          "name": "owner",
          "type": "address"
        },
        {
          "indexed": true,
          "internalType": "address",
          "name": "spender",
          "type": "address"
        },
        {
          "indexed": false,
          "internalType": "uint256",
          "name": "amount",
          "type": "uint256"
        }
      ],
      "name": "Approval",
      "type": "event"
    },
    {
      "anonymous": false,
      "inputs": [
        {
          "indexed": false,
          "internalType": "address",
          "name": "series",
          "type": "address"
        },
        {
          "indexed": false,
          "internalType": "uint256",
          "name": "amount",
          "type": "uint256"
        },
        {
          "indexed": false,
          "internalType": "uint256",
          "name": "premium",
          "type": "uint256"
        },
        {
          "indexed": false,
          "internalType": "uint256",
          "name": "escrowReturned",
          "type": "uint256"
        },
        {
          "indexed": false,
          "internalType": "address",
          "name": "seller",
          "type": "address"
        }
      ],
      "name": "BuybackOption",
      "type": "event"
    },
    {
      "anonymous": false,
      "inputs": [
        {
          "indexed": false,
          "internalType": "address",
          "name": "recipient",
          "type": "address"
        },
        {
          "indexed": false,
          "internalType": "uint256",
          "name": "strikeAmount",
          "type": "uint256"
        },
        {
          "indexed": false,
          "internalType": "uint256",
          "name": "shares",
          "type": "uint256"
        }
      ],
      "name": "Deposit",
      "type": "event"
    },
    {
      "anonymous": false,
      "inputs": [
        {
          "indexed": false,
          "internalType": "address",
          "name": "underlying",
          "type": "address"
        },
        {
          "indexed": false,
          "internalType": "uint256",
          "name": "iv",
          "type": "uint256"
        }
      ],
      "name": "ImpliedVolatilityUpdated",
      "type": "event"
    },
    {
      "anonymous": false,
      "inputs": [
        {
          "indexed": false,
          "internalType": "uint256",
          "name": "amount",
          "type": "uint256"
        }
      ],
      "name": "LiquidityAdded",
      "type": "event"
    },
    {
      "anonymous": false,
      "inputs": [
        {
          "indexed": true,
          "internalType": "address",
          "name": "previousOwner",
          "type": "address"
        },
        {
          "indexed": true,
          "internalType": "address",
          "name": "newOwner",
          "type": "address"
        }
      ],
      "name": "OwnershipTransferred",
      "type": "event"
    },
    {
      "anonymous": false,
      "inputs": [
        {
          "indexed": false,
          "internalType": "address",
          "name": "account",
          "type": "address"
        }
      ],
      "name": "Paused",
      "type": "event"
    },
    {
      "anonymous": false,
      "inputs": [
        {
          "indexed": true,
          "internalType": "bytes32",
          "name": "role",
          "type": "bytes32"
        },
        {
          "indexed": true,
          "internalType": "bytes32",
          "name": "previousAdminRole",
          "type": "bytes32"
        },
        {
          "indexed": true,
          "internalType": "bytes32",
          "name": "newAdminRole",
          "type": "bytes32"
        }
      ],
      "name": "RoleAdminChanged",
      "type": "event"
    },
    {
      "anonymous": false,
      "inputs": [
        {
          "indexed": true,
          "internalType": "bytes32",
          "name": "role",
          "type": "bytes32"
        },
        {
          "indexed": true,
          "internalType": "address",
          "name": "account",
          "type": "address"
        },
        {
          "indexed": true,
          "internalType": "address",
          "name": "sender",
          "type": "address"
        }
      ],
      "name": "RoleGranted",
      "type": "event"
    },
    {
      "anonymous": false,
      "inputs": [
        {
          "indexed": true,
          "internalType": "bytes32",
          "name": "role",
          "type": "bytes32"
        },
        {
          "indexed": true,
          "internalType": "address",
          "name": "account",
          "type": "address"
        },
        {
          "indexed": true,
          "internalType": "address",
          "name": "sender",
          "type": "address"
        }
      ],
      "name": "RoleRevoked",
      "type": "event"
    },
    {
      "anonymous": false,
      "inputs": [
        {
          "indexed": true,
          "internalType": "address",
          "name": "from",
          "type": "address"
        },
        {
          "indexed": true,
          "internalType": "address",
          "name": "to",
          "type": "address"
        },
        {
          "indexed": false,
          "internalType": "uint256",
          "name": "amount",
          "type": "uint256"
        }
      ],
      "name": "Transfer",
      "type": "event"
    },
    {
      "anonymous": false,
      "inputs": [
        {
          "indexed": false,
          "internalType": "address",
          "name": "underlying",
          "type": "address"
        }
      ],
      "name": "UnderlyingAdded",
      "type": "event"
    },
    {
      "anonymous": false,
      "inputs": [
        {
          "indexed": false,
          "internalType": "address",
          "name": "account",
          "type": "address"
        }
      ],
      "name": "Unpaused",
      "type": "event"
    },
    {
      "anonymous": false,
      "inputs": [
        {
          "indexed": false,
          "internalType": "address",
          "name": "recipient",
          "type": "address"
        },
        {
          "indexed": false,
          "internalType": "uint256",
          "name": "shares",
          "type": "uint256"
        },
        {
          "indexed": false,
          "internalType": "uint256",
          "name": "strikeAmount",
          "type": "uint256"
        }
      ],
      "name": "Withdraw",
      "type": "event"
    },
    {
      "anonymous": false,
      "inputs": [
        {
          "indexed": false,
          "internalType": "address",
          "name": "series",
          "type": "address"
        },
        {
          "indexed": false,
          "internalType": "uint256",
          "name": "amount",
          "type": "uint256"
        },
        {
          "indexed": false,
          "internalType": "uint256",
          "name": "premium",
          "type": "uint256"
        },
        {
          "indexed": false,
          "internalType": "uint256",
          "name": "escrow",
          "type": "uint256"
        },
        {
          "indexed": false,
          "internalType": "address",
          "name": "buyer",
          "type": "address"
        }
      ],
      "name": "WriteOption",
      "type": "event"
    },
    {
      "inputs": [],
      "name": "ADMIN_ROLE",
      "outputs": [
        {
          "internalType": "bytes32",
          "name": "",
          "type": "bytes32"
        }
      ],
      "stateMutability": "view",
      "type": "function"
    },
    {
      "inputs": [],
      "name": "DEFAULT_ADMIN_ROLE",
      "outputs": [
        {
          "internalType": "bytes32",
          "name": "",
          "type": "bytes32"
        }
      ],
      "stateMutability": "view",
      "type": "function"
    },
    {
      "inputs": [],
      "name": "DOMAIN_SEPARATOR",
      "outputs": [
        {
          "internalType": "bytes32",
          "name": "",
          "type": "bytes32"
        }
      ],
      "stateMutability": "view",
      "type": "function"
    },
    {
      "inputs": [
        {
          "internalType": "address",
          "name": "_addressToWhitelist",
          "type": "address"
        }
      ],
      "name": "addBuybackAddress",
      "outputs": [],
      "stateMutability": "nonpayable",
      "type": "function"
    },
    {
      "inputs": [
        {
          "internalType": "address",
          "name": "",
          "type": "address"
        },
        {
          "internalType": "address",
          "name": "",
          "type": "address"
        }
      ],
      "name": "allowance",
      "outputs": [
        {
          "internalType": "uint256",
          "name": "",
          "type": "uint256"
        }
      ],
      "stateMutability": "view",
      "type": "function"
    },
    {
      "inputs": [
        {
          "internalType": "address",
          "name": "spender",
          "type": "address"
        },
        {
          "internalType": "uint256",
          "name": "amount",
          "type": "uint256"
        }
      ],
      "name": "approve",
      "outputs": [
        {
          "internalType": "bool",
          "name": "",
          "type": "bool"
        }
      ],
      "stateMutability": "nonpayable",
      "type": "function"
    },
    {
      "inputs": [
        {
          "internalType": "address",
          "name": "",
          "type": "address"
        }
      ],
      "name": "balanceOf",
      "outputs": [
        {
          "internalType": "uint256",
          "name": "",
          "type": "uint256"
        }
      ],
      "stateMutability": "view",
      "type": "function"
    },
    {
      "inputs": [],
      "name": "bidAskIVSpread",
      "outputs": [
        {
          "internalType": "uint256",
          "name": "",
          "type": "uint256"
        }
      ],
      "stateMutability": "view",
      "type": "function"
    },
    {
      "inputs": [
        {
          "internalType": "uint256",
          "name": "orderId",
          "type": "uint256"
        }
      ],
      "name": "buyManualIssue",
      "outputs": [],
      "stateMutability": "nonpayable",
      "type": "function"
    },
    {
      "inputs": [
        {
          "components": [
            {
              "internalType": "uint256",
              "name": "expiration",
              "type": "uint256"
            },
            {
              "internalType": "bool",
              "name": "isPut",
              "type": "bool"
            },
            {
              "internalType": "uint256",
              "name": "strike",
              "type": "uint256"
            },
            {
              "internalType": "address",
              "name": "underlying",
              "type": "address"
            },
            {
              "internalType": "address",
              "name": "strikeAsset",
              "type": "address"
            },
            {
              "internalType": "address",
              "name": "collateral",
              "type": "address"
            }
          ],
          "internalType": "struct Types.OptionSeries",
          "name": "optionSeries",
          "type": "tuple"
        },
        {
          "internalType": "uint256",
          "name": "amount",
          "type": "uint256"
        }
      ],
      "name": "buybackOption",
      "outputs": [
        {
          "internalType": "uint256",
          "name": "",
          "type": "uint256"
        }
      ],
      "stateMutability": "nonpayable",
      "type": "function"
    },
    {
      "inputs": [
        {
          "internalType": "address",
          "name": "",
          "type": "address"
        }
      ],
      "name": "buybackWhitelist",
      "outputs": [
        {
          "internalType": "bool",
          "name": "",
          "type": "bool"
        }
      ],
      "stateMutability": "view",
      "type": "function"
    },
    {
      "inputs": [
        {
          "internalType": "uint256",
          "name": "",
          "type": "uint256"
        }
      ],
      "name": "callsVolatilitySkew",
      "outputs": [
        {
          "internalType": "int256",
          "name": "",
          "type": "int256"
        }
      ],
      "stateMutability": "view",
      "type": "function"
    },
    {
      "inputs": [],
      "name": "collateralAllocated",
      "outputs": [
        {
          "internalType": "uint256",
          "name": "",
          "type": "uint256"
        }
      ],
      "stateMutability": "view",
      "type": "function"
    },
    {
      "inputs": [],
      "name": "collateralAsset",
      "outputs": [
        {
          "internalType": "address",
          "name": "",
          "type": "address"
        }
      ],
      "stateMutability": "view",
      "type": "function"
    },
    {
      "inputs": [
        {
          "components": [
            {
              "internalType": "uint256",
              "name": "expiration",
              "type": "uint256"
            },
            {
              "internalType": "bool",
              "name": "isPut",
              "type": "bool"
            },
            {
              "internalType": "uint256",
              "name": "strike",
              "type": "uint256"
            },
            {
              "internalType": "address",
              "name": "underlying",
              "type": "address"
            },
            {
              "internalType": "address",
              "name": "strikeAsset",
              "type": "address"
            },
            {
              "internalType": "address",
              "name": "collateral",
              "type": "address"
            }
          ],
          "internalType": "struct Types.OptionSeries",
          "name": "_optionSeries",
          "type": "tuple"
        },
        {
          "internalType": "uint256",
          "name": "_amount",
          "type": "uint256"
        },
        {
          "internalType": "uint256",
          "name": "_price",
          "type": "uint256"
        },
        {
          "internalType": "address",
          "name": "_buyerAddress",
          "type": "address"
        }
      ],
      "name": "createManualIssue",
      "outputs": [
        {
          "internalType": "uint256",
          "name": "amount",
          "type": "uint256"
        },
        {
          "internalType": "address",
          "name": "series",
          "type": "address"
        }
      ],
      "stateMutability": "nonpayable",
      "type": "function"
    },
    {
      "inputs": [],
      "name": "decimals",
      "outputs": [
        {
          "internalType": "uint8",
          "name": "",
          "type": "uint8"
        }
      ],
      "stateMutability": "view",
      "type": "function"
    },
    {
      "inputs": [
        {
          "internalType": "uint256",
          "name": "_amount",
          "type": "uint256"
        },
        {
          "internalType": "address",
          "name": "_recipient",
          "type": "address"
        }
      ],
      "name": "deposit",
      "outputs": [
        {
          "internalType": "uint256",
          "name": "shares",
          "type": "uint256"
        }
      ],
      "stateMutability": "nonpayable",
      "type": "function"
    },
    {
      "inputs": [
        {
          "internalType": "bool",
          "name": "isPut",
          "type": "bool"
        },
        {
          "internalType": "uint256",
          "name": "underlyingPrice",
          "type": "uint256"
        },
        {
          "internalType": "uint256",
          "name": "strikePrice",
          "type": "uint256"
        },
        {
          "internalType": "uint256",
          "name": "expiration",
          "type": "uint256"
        }
      ],
      "name": "getImpliedVolatility",
      "outputs": [
        {
          "internalType": "uint256",
          "name": "",
          "type": "uint256"
        }
      ],
      "stateMutability": "view",
      "type": "function"
    },
    {
      "inputs": [],
      "name": "getPortfolioDelta",
      "outputs": [
        {
          "internalType": "int256",
          "name": "",
          "type": "int256"
        }
      ],
      "stateMutability": "view",
      "type": "function"
    },
    {
      "inputs": [
        {
          "internalType": "bytes32",
          "name": "role",
          "type": "bytes32"
        }
      ],
      "name": "getRoleAdmin",
      "outputs": [
        {
          "internalType": "bytes32",
          "name": "",
          "type": "bytes32"
        }
      ],
      "stateMutability": "view",
      "type": "function"
    },
    {
      "inputs": [
        {
          "internalType": "bool",
          "name": "isPut",
          "type": "bool"
        }
      ],
      "name": "getVolatilitySkew",
      "outputs": [
        {
          "internalType": "int256[7]",
          "name": "",
          "type": "int256[7]"
        }
      ],
      "stateMutability": "view",
      "type": "function"
    },
    {
      "inputs": [
        {
          "internalType": "bytes32",
          "name": "role",
          "type": "bytes32"
        },
        {
          "internalType": "address",
          "name": "account",
          "type": "address"
        }
      ],
      "name": "grantRole",
      "outputs": [],
      "stateMutability": "nonpayable",
      "type": "function"
    },
    {
      "inputs": [
        {
          "internalType": "bytes32",
          "name": "role",
          "type": "bytes32"
        },
        {
          "internalType": "address",
          "name": "account",
          "type": "address"
        }
      ],
      "name": "hasRole",
      "outputs": [
        {
          "internalType": "bool",
          "name": "",
          "type": "bool"
        }
      ],
      "stateMutability": "view",
      "type": "function"
    },
    {
      "inputs": [
        {
          "internalType": "uint256",
          "name": "",
          "type": "uint256"
        }
      ],
      "name": "hedgingReactors",
      "outputs": [
        {
          "internalType": "address",
          "name": "",
          "type": "address"
        }
      ],
      "stateMutability": "view",
      "type": "function"
    },
    {
      "inputs": [
        {
          "internalType": "address",
          "name": "",
          "type": "address"
        }
      ],
      "name": "impliedVolatility",
      "outputs": [
        {
          "internalType": "uint256",
          "name": "",
          "type": "uint256"
        }
      ],
      "stateMutability": "view",
      "type": "function"
    },
    {
      "inputs": [
        {
          "components": [
            {
              "internalType": "uint256",
              "name": "expiration",
              "type": "uint256"
            },
            {
              "internalType": "bool",
              "name": "isPut",
              "type": "bool"
            },
            {
              "internalType": "uint256",
              "name": "strike",
              "type": "uint256"
            },
            {
              "internalType": "address",
              "name": "underlying",
              "type": "address"
            },
            {
              "internalType": "address",
              "name": "strikeAsset",
              "type": "address"
            },
            {
              "internalType": "address",
              "name": "collateral",
              "type": "address"
            }
          ],
          "internalType": "struct Types.OptionSeries",
          "name": "optionSeries",
          "type": "tuple"
        },
        {
          "internalType": "uint256",
          "name": "amount",
          "type": "uint256"
        }
      ],
      "name": "issueAndWriteOption",
      "outputs": [
        {
          "internalType": "uint256",
          "name": "optionAmount",
          "type": "uint256"
        },
        {
          "internalType": "address",
          "name": "series",
          "type": "address"
        }
      ],
      "stateMutability": "nonpayable",
      "type": "function"
    },
    {
      "inputs": [],
      "name": "maxDiscount",
      "outputs": [
        {
          "internalType": "uint256",
          "name": "",
          "type": "uint256"
        }
      ],
      "stateMutability": "view",
      "type": "function"
    },
    {
      "inputs": [],
      "name": "maxTotalSupply",
      "outputs": [
        {
          "internalType": "uint256",
          "name": "",
          "type": "uint256"
        }
      ],
      "stateMutability": "view",
      "type": "function"
    },
    {
      "inputs": [],
      "name": "name",
      "outputs": [
        {
          "internalType": "string",
          "name": "",
          "type": "string"
        }
      ],
      "stateMutability": "view",
      "type": "function"
    },
    {
      "inputs": [
        {
          "internalType": "address",
          "name": "",
          "type": "address"
        }
      ],
      "name": "nonces",
      "outputs": [
        {
          "internalType": "uint256",
          "name": "",
          "type": "uint256"
        }
      ],
      "stateMutability": "view",
      "type": "function"
    },
    {
      "inputs": [],
      "name": "optionParams",
      "outputs": [
        {
          "internalType": "uint128",
          "name": "minCallStrikePrice",
          "type": "uint128"
        },
        {
          "internalType": "uint128",
          "name": "maxCallStrikePrice",
          "type": "uint128"
        },
        {
          "internalType": "uint128",
          "name": "minPutStrikePrice",
          "type": "uint128"
        },
        {
          "internalType": "uint128",
          "name": "maxPutStrikePrice",
          "type": "uint128"
        },
        {
          "internalType": "uint128",
          "name": "minExpiry",
          "type": "uint128"
        },
        {
          "internalType": "uint128",
          "name": "maxExpiry",
          "type": "uint128"
        }
      ],
      "stateMutability": "view",
      "type": "function"
    },
    {
      "inputs": [],
      "name": "owner",
      "outputs": [
        {
          "internalType": "address",
          "name": "",
          "type": "address"
        }
      ],
      "stateMutability": "view",
      "type": "function"
    },
    {
      "inputs": [],
      "name": "pauseContract",
      "outputs": [],
      "stateMutability": "nonpayable",
      "type": "function"
    },
    {
      "inputs": [],
      "name": "paused",
      "outputs": [
        {
          "internalType": "bool",
          "name": "",
          "type": "bool"
        }
      ],
      "stateMutability": "view",
      "type": "function"
    },
    {
      "inputs": [
        {
          "internalType": "address",
          "name": "owner",
          "type": "address"
        },
        {
          "internalType": "address",
          "name": "spender",
          "type": "address"
        },
        {
          "internalType": "uint256",
          "name": "value",
          "type": "uint256"
        },
        {
          "internalType": "uint256",
          "name": "deadline",
          "type": "uint256"
        },
        {
          "internalType": "uint8",
          "name": "v",
          "type": "uint8"
        },
        {
          "internalType": "bytes32",
          "name": "r",
          "type": "bytes32"
        },
        {
          "internalType": "bytes32",
          "name": "s",
          "type": "bytes32"
        }
      ],
      "name": "permit",
      "outputs": [],
      "stateMutability": "nonpayable",
      "type": "function"
    },
    {
      "inputs": [],
      "name": "protocol",
      "outputs": [
        {
          "internalType": "address",
          "name": "",
          "type": "address"
        }
      ],
      "stateMutability": "view",
      "type": "function"
    },
    {
      "inputs": [
        {
          "internalType": "uint256",
          "name": "",
          "type": "uint256"
        }
      ],
      "name": "putsVolatilitySkew",
      "outputs": [
        {
          "internalType": "int256",
          "name": "",
          "type": "int256"
        }
      ],
      "stateMutability": "view",
      "type": "function"
    },
    {
      "inputs": [
        {
          "components": [
            {
              "internalType": "uint256",
              "name": "expiration",
              "type": "uint256"
            },
            {
              "internalType": "bool",
              "name": "isPut",
              "type": "bool"
            },
            {
              "internalType": "uint256",
              "name": "strike",
              "type": "uint256"
            },
            {
              "internalType": "address",
              "name": "underlying",
              "type": "address"
            },
            {
              "internalType": "address",
              "name": "strikeAsset",
              "type": "address"
            },
            {
              "internalType": "address",
              "name": "collateral",
              "type": "address"
            }
          ],
          "internalType": "struct Types.OptionSeries",
          "name": "optionSeries",
          "type": "tuple"
        }
      ],
      "name": "quotePrice",
      "outputs": [
        {
          "internalType": "uint256",
          "name": "",
          "type": "uint256"
        }
      ],
      "stateMutability": "view",
      "type": "function"
    },
    {
      "inputs": [
        {
          "components": [
            {
              "internalType": "uint256",
              "name": "expiration",
              "type": "uint256"
            },
            {
              "internalType": "bool",
              "name": "isPut",
              "type": "bool"
            },
            {
              "internalType": "uint256",
              "name": "strike",
              "type": "uint256"
            },
            {
              "internalType": "address",
              "name": "underlying",
              "type": "address"
            },
            {
              "internalType": "address",
              "name": "strikeAsset",
              "type": "address"
            },
            {
              "internalType": "address",
              "name": "collateral",
              "type": "address"
            }
          ],
          "internalType": "struct Types.OptionSeries",
          "name": "optionSeries",
          "type": "tuple"
        },
        {
          "internalType": "uint256",
          "name": "amount",
          "type": "uint256"
        }
      ],
      "name": "quotePriceBuying",
      "outputs": [
        {
          "internalType": "uint256",
          "name": "quote",
          "type": "uint256"
        },
        {
          "internalType": "int256",
          "name": "delta",
          "type": "int256"
        }
      ],
      "stateMutability": "view",
      "type": "function"
    },
    {
      "inputs": [
        {
          "components": [
            {
              "internalType": "uint256",
              "name": "expiration",
              "type": "uint256"
            },
            {
              "internalType": "bool",
              "name": "isPut",
              "type": "bool"
            },
            {
              "internalType": "uint256",
              "name": "strike",
              "type": "uint256"
            },
            {
              "internalType": "address",
              "name": "underlying",
              "type": "address"
            },
            {
              "internalType": "address",
              "name": "strikeAsset",
              "type": "address"
            },
            {
              "internalType": "address",
              "name": "collateral",
              "type": "address"
            }
          ],
          "internalType": "struct Types.OptionSeries",
          "name": "optionSeries",
          "type": "tuple"
        },
        {
          "internalType": "bool",
          "name": "isBuying",
          "type": "bool"
        }
      ],
      "name": "quotePriceGreeks",
      "outputs": [
        {
          "internalType": "uint256",
          "name": "quote",
          "type": "uint256"
        },
        {
          "internalType": "int256",
          "name": "delta",
          "type": "int256"
        },
        {
          "internalType": "uint256",
          "name": "underlyingPrice",
          "type": "uint256"
        }
      ],
      "stateMutability": "view",
      "type": "function"
    },
    {
      "inputs": [
        {
          "components": [
            {
              "internalType": "uint256",
              "name": "expiration",
              "type": "uint256"
            },
            {
              "internalType": "bool",
              "name": "isPut",
              "type": "bool"
            },
            {
              "internalType": "uint256",
              "name": "strike",
              "type": "uint256"
            },
            {
              "internalType": "address",
              "name": "underlying",
              "type": "address"
            },
            {
              "internalType": "address",
              "name": "strikeAsset",
              "type": "address"
            },
            {
              "internalType": "address",
              "name": "collateral",
              "type": "address"
            }
          ],
          "internalType": "struct Types.OptionSeries",
          "name": "optionSeries",
          "type": "tuple"
        },
        {
          "internalType": "uint256",
          "name": "amount",
          "type": "uint256"
        }
      ],
      "name": "quotePriceWithUtilization",
      "outputs": [
        {
          "internalType": "uint256",
          "name": "",
          "type": "uint256"
        }
      ],
      "stateMutability": "view",
      "type": "function"
    },
    {
      "inputs": [
        {
          "components": [
            {
              "internalType": "uint256",
              "name": "expiration",
              "type": "uint256"
            },
            {
              "internalType": "bool",
              "name": "isPut",
              "type": "bool"
            },
            {
              "internalType": "uint256",
              "name": "strike",
              "type": "uint256"
            },
            {
              "internalType": "address",
              "name": "underlying",
              "type": "address"
            },
            {
              "internalType": "address",
              "name": "strikeAsset",
              "type": "address"
            },
            {
              "internalType": "address",
              "name": "collateral",
              "type": "address"
            }
          ],
          "internalType": "struct Types.OptionSeries",
          "name": "optionSeries",
          "type": "tuple"
        },
        {
          "internalType": "uint256",
          "name": "amount",
          "type": "uint256"
        }
      ],
      "name": "quotePriceWithUtilizationGreeks",
      "outputs": [
        {
          "internalType": "uint256",
          "name": "quote",
          "type": "uint256"
        },
        {
          "internalType": "int256",
          "name": "delta",
          "type": "int256"
        }
      ],
      "stateMutability": "view",
      "type": "function"
    },
    {
      "inputs": [
        {
          "internalType": "int256",
          "name": "delta",
          "type": "int256"
        },
        {
          "internalType": "uint256",
          "name": "reactorIndex",
          "type": "uint256"
        }
      ],
      "name": "rebalancePortfolioDelta",
      "outputs": [],
      "stateMutability": "nonpayable",
      "type": "function"
    },
    {
      "inputs": [
        {
          "internalType": "uint256",
          "name": "_index",
          "type": "uint256"
        }
      ],
      "name": "removeHedgingReactorAddress",
      "outputs": [],
      "stateMutability": "nonpayable",
      "type": "function"
    },
    {
      "inputs": [],
      "name": "renounceOwnership",
      "outputs": [],
      "stateMutability": "nonpayable",
      "type": "function"
    },
    {
      "inputs": [
        {
          "internalType": "bytes32",
          "name": "role",
          "type": "bytes32"
        },
        {
          "internalType": "address",
          "name": "account",
          "type": "address"
        }
      ],
      "name": "renounceRole",
      "outputs": [],
      "stateMutability": "nonpayable",
      "type": "function"
    },
    {
      "inputs": [
        {
          "internalType": "bytes32",
          "name": "role",
          "type": "bytes32"
        },
        {
          "internalType": "address",
          "name": "account",
          "type": "address"
        }
      ],
      "name": "revokeRole",
      "outputs": [],
      "stateMutability": "nonpayable",
      "type": "function"
    },
    {
      "inputs": [],
      "name": "riskFreeRate",
      "outputs": [
        {
          "internalType": "uint256",
          "name": "",
          "type": "uint256"
        }
      ],
      "stateMutability": "view",
      "type": "function"
    },
    {
      "inputs": [
        {
          "internalType": "uint256",
          "name": "_bidAskSpread",
          "type": "uint256"
        }
      ],
      "name": "setBidAskSpread",
      "outputs": [],
      "stateMutability": "nonpayable",
      "type": "function"
    },
    {
      "inputs": [
        {
          "internalType": "uint256",
          "name": "_totalAmountCall",
          "type": "uint256"
        },
        {
          "internalType": "uint256",
          "name": "_totalAmountPut",
          "type": "uint256"
        },
        {
          "internalType": "uint256",
          "name": "_weightedStrikeCall",
          "type": "uint256"
        },
        {
          "internalType": "uint256",
          "name": "_weightedTimeCall",
          "type": "uint256"
        },
        {
          "internalType": "uint256",
          "name": "_weightedStrikePut",
          "type": "uint256"
        },
        {
          "internalType": "uint256",
          "name": "_weightedTimePut",
          "type": "uint256"
        }
      ],
      "name": "setCachedOptionsVariables",
      "outputs": [],
      "stateMutability": "nonpayable",
      "type": "function"
    },
    {
      "inputs": [
        {
          "internalType": "address",
          "name": "_reactorAddress",
          "type": "address"
        }
      ],
      "name": "setHedgingReactorAddress",
      "outputs": [],
      "stateMutability": "nonpayable",
      "type": "function"
    },
    {
      "inputs": [
        {
          "internalType": "uint128",
          "name": "_newPrice",
          "type": "uint128"
        }
      ],
      "name": "setMaxCallStrikePrice",
      "outputs": [],
      "stateMutability": "nonpayable",
      "type": "function"
    },
    {
      "inputs": [
        {
          "internalType": "uint256",
          "name": "_maxDiscount",
          "type": "uint256"
        }
      ],
      "name": "setMaxDiscount",
      "outputs": [],
      "stateMutability": "nonpayable",
      "type": "function"
    },
    {
      "inputs": [
        {
          "internalType": "uint128",
          "name": "_newPeriod",
          "type": "uint128"
        }
      ],
      "name": "setMaxExpiryPeriod",
      "outputs": [],
      "stateMutability": "nonpayable",
      "type": "function"
    },
    {
      "inputs": [
        {
          "internalType": "uint128",
          "name": "_newPrice",
          "type": "uint128"
        }
      ],
      "name": "setMaxPutStrikePrice",
      "outputs": [],
      "stateMutability": "nonpayable",
      "type": "function"
    },
    {
      "inputs": [
        {
          "internalType": "uint256",
          "name": "_maxTotalSupply",
          "type": "uint256"
        }
      ],
      "name": "setMaxTotalSupply",
      "outputs": [],
      "stateMutability": "nonpayable",
      "type": "function"
    },
    {
      "inputs": [
        {
          "internalType": "uint128",
          "name": "_newPrice",
          "type": "uint128"
        }
      ],
      "name": "setMinCallStrikePrice",
      "outputs": [],
      "stateMutability": "nonpayable",
      "type": "function"
    },
    {
      "inputs": [
        {
          "internalType": "uint128",
          "name": "_newPeriod",
          "type": "uint128"
        }
      ],
      "name": "setMinExpiryPeriod",
      "outputs": [],
      "stateMutability": "nonpayable",
      "type": "function"
    },
    {
      "inputs": [
        {
          "internalType": "uint128",
          "name": "_newPrice",
          "type": "uint128"
        }
      ],
      "name": "setMinPutStrikePrice",
      "outputs": [],
      "stateMutability": "nonpayable",
      "type": "function"
    },
    {
      "inputs": [
        {
          "internalType": "uint128",
          "name": "_newMinCallStrike",
          "type": "uint128"
        },
        {
          "internalType": "uint128",
          "name": "_newMaxCallStrike",
          "type": "uint128"
        },
        {
          "internalType": "uint128",
          "name": "_newMinPutStrike",
          "type": "uint128"
        },
        {
          "internalType": "uint128",
          "name": "_newMaxPutStrike",
          "type": "uint128"
        },
        {
          "internalType": "uint128",
          "name": "_newMinExpiry",
          "type": "uint128"
        },
        {
          "internalType": "uint128",
          "name": "_newMaxExpiry",
          "type": "uint128"
        }
      ],
      "name": "setNewOptionParams",
      "outputs": [],
      "stateMutability": "nonpayable",
      "type": "function"
    },
    {
      "inputs": [
        {
          "internalType": "int256[7]",
          "name": "values",
          "type": "int256[7]"
        },
        {
          "internalType": "bool",
          "name": "isPut",
          "type": "bool"
        }
      ],
      "name": "setVolatilitySkew",
      "outputs": [
        {
          "internalType": "bool",
          "name": "",
          "type": "bool"
        }
      ],
      "stateMutability": "nonpayable",
      "type": "function"
    },
    {
      "inputs": [],
      "name": "strikeAsset",
      "outputs": [
        {
          "internalType": "address",
          "name": "",
          "type": "address"
        }
      ],
      "stateMutability": "view",
      "type": "function"
    },
    {
      "inputs": [
        {
          "internalType": "bytes4",
          "name": "interfaceId",
          "type": "bytes4"
        }
      ],
      "name": "supportsInterface",
      "outputs": [
        {
          "internalType": "bool",
          "name": "",
          "type": "bool"
        }
      ],
      "stateMutability": "view",
      "type": "function"
    },
    {
      "inputs": [],
      "name": "symbol",
      "outputs": [
        {
          "internalType": "string",
          "name": "",
          "type": "string"
        }
      ],
      "stateMutability": "view",
      "type": "function"
    },
    {
      "inputs": [],
      "name": "totalAmountCall",
      "outputs": [
        {
          "internalType": "uint256",
          "name": "",
          "type": "uint256"
        }
      ],
      "stateMutability": "view",
      "type": "function"
    },
    {
      "inputs": [],
      "name": "totalAmountPut",
      "outputs": [
        {
          "internalType": "uint256",
          "name": "",
          "type": "uint256"
        }
      ],
      "stateMutability": "view",
      "type": "function"
    },
    {
      "inputs": [],
      "name": "totalSupply",
      "outputs": [
        {
          "internalType": "uint256",
          "name": "",
          "type": "uint256"
        }
      ],
      "stateMutability": "view",
      "type": "function"
    },
    {
      "inputs": [
        {
          "internalType": "address",
          "name": "to",
          "type": "address"
        },
        {
          "internalType": "uint256",
          "name": "amount",
          "type": "uint256"
        }
      ],
      "name": "transfer",
      "outputs": [
        {
          "internalType": "bool",
          "name": "",
          "type": "bool"
        }
      ],
      "stateMutability": "nonpayable",
      "type": "function"
    },
    {
      "inputs": [
        {
          "internalType": "address",
          "name": "from",
          "type": "address"
        },
        {
          "internalType": "address",
          "name": "to",
          "type": "address"
        },
        {
          "internalType": "uint256",
          "name": "amount",
          "type": "uint256"
        }
      ],
      "name": "transferFrom",
      "outputs": [
        {
          "internalType": "bool",
          "name": "",
          "type": "bool"
        }
      ],
      "stateMutability": "nonpayable",
      "type": "function"
    },
    {
      "inputs": [
        {
          "internalType": "address",
          "name": "newOwner",
          "type": "address"
        }
      ],
      "name": "transferOwnership",
      "outputs": [],
      "stateMutability": "nonpayable",
      "type": "function"
    },
    {
      "inputs": [],
      "name": "underlyingAllocated",
      "outputs": [
        {
          "internalType": "uint256",
          "name": "",
          "type": "uint256"
        }
      ],
      "stateMutability": "view",
      "type": "function"
    },
    {
      "inputs": [],
      "name": "underlyingAsset",
      "outputs": [
        {
          "internalType": "address",
          "name": "",
          "type": "address"
        }
      ],
      "stateMutability": "view",
      "type": "function"
    },
    {
      "inputs": [],
      "name": "unpause",
      "outputs": [],
      "stateMutability": "nonpayable",
      "type": "function"
    },
    {
      "inputs": [],
      "name": "weightedStrikeCall",
      "outputs": [
        {
          "internalType": "uint256",
          "name": "",
          "type": "uint256"
        }
      ],
      "stateMutability": "view",
      "type": "function"
    },
    {
      "inputs": [],
      "name": "weightedStrikePut",
      "outputs": [
        {
          "internalType": "uint256",
          "name": "",
          "type": "uint256"
        }
      ],
      "stateMutability": "view",
      "type": "function"
    },
    {
      "inputs": [],
      "name": "weightedTimeCall",
      "outputs": [
        {
          "internalType": "uint256",
          "name": "",
          "type": "uint256"
        }
      ],
      "stateMutability": "view",
      "type": "function"
    },
    {
      "inputs": [],
      "name": "weightedTimePut",
      "outputs": [
        {
          "internalType": "uint256",
          "name": "",
          "type": "uint256"
        }
      ],
      "stateMutability": "view",
      "type": "function"
    },
    {
      "inputs": [
        {
          "internalType": "uint256",
          "name": "_shares",
          "type": "uint256"
        },
        {
          "internalType": "address",
          "name": "_recipient",
          "type": "address"
        }
      ],
      "name": "withdraw",
      "outputs": [
        {
          "internalType": "uint256",
          "name": "transferCollateralAmount",
          "type": "uint256"
        }
      ],
      "stateMutability": "nonpayable",
      "type": "function"
    },
    {
      "inputs": [
        {
          "internalType": "address",
          "name": "seriesAddress",
          "type": "address"
        },
        {
          "internalType": "uint256",
          "name": "amount",
          "type": "uint256"
        }
      ],
      "name": "writeOption",
      "outputs": [
        {
          "internalType": "uint256",
          "name": "",
          "type": "uint256"
        }
      ],
      "stateMutability": "nonpayable",
      "type": "function"
    }
  ],
  "bytecode": "0x60e06040526000196012556200002d600a670de0b6b3a76400006200021460201b62002aad1790919060201c565b6013553480156200003d57600080fd5b5060405162005cfc38038062005cfc8339810160408190526200006091620007c4565b8383601282600090805190602001906200007c929190620004b6565b50815162000092906001906020850190620004b6565b5060ff81166080524660a052620000a86200023d565b60c05250620000bb9150339050620002d9565b60016008556009805460ff19169055620000f67fa49807205ce4d355092ef5a8a18f56e8913cf4a201fbe287825b095693c21775826200032b565b600c80546001600160a01b03808d166001600160a01b031992831617909255600f899055600d80548c8416908316179055600e8054928b16929091169190911790558862000148601a88600762000545565b5062000158602187600762000545565b50600b80546001600160a01b0319166001600160a01b038e81169190911790915583516020808601516001600160801b03928316600160801b918416820217602c556040808801516060890151908516908516830217602d55608088015160a0890151908516941690910292909217602e55600019601255905191831682527f04c449c247e236295fc113b39743f719f822b1f0f1159001a4c16d8487c2a8c1910160405180910390a1505050505050505050505050620009d3565b60006200023683670de0b6b3a7640000846200033b60201b62002abe1760201c565b9392505050565b60007f8b73c3c69bb8fe3d512ecc4cf759cc79239f7b179b0ffacaa9a75d522b39400f600060405162000271919062000919565b6040805191829003822060208301939093528101919091527fc89efdaa54c0f20c7adf612882df0950f5a951637e0307cdcb4c672f298b8bc660608201524660808201523060a082015260c00160405160208183030381529060405280519060200120905090565b600680546001600160a01b038381166001600160a01b0319831681179093556040519116919082907f8be0079c531659141344cd1fd0a4f28419497f9722a3daafe3b4186f6b6457e090600090a35050565b62000337828262000412565b5050565b6000808060001985870985870292508281108382030391505080600014156200037b57838281620003705762000370620009bd565b049250505062000236565b838110620003aa57604051631dcf306360e21b8152600481018290526024810185905260440160405180910390fd5b600084868809600260036001881981018916988990049182028318808302840302808302840302808302840302808302840302808302840302918202909203026000889003889004909101858311909403939093029303949094049190911702949350505050565b60008281526007602090815260408083206001600160a01b038516845290915290205460ff16620003375760008281526007602090815260408083206001600160a01b03851684529091529020805460ff19166001179055620004723390565b6001600160a01b0316816001600160a01b0316837f2f8788117e7eff1d82e926ec794901d17c78024a50270940304540a733656f0d60405160405180910390a45050565b828054620004c490620008dc565b90600052602060002090601f016020900481019282620004e8576000855562000533565b82601f106200050357805160ff191683800117855562000533565b8280016001018555821562000533579182015b828111156200053357825182559160200191906001019062000516565b506200054192915062000575565b5090565b82600781019282156200053357916020028201828111156200053357825182559160200191906001019062000516565b5b8082111562000541576000815560010162000576565b80516001600160a01b0381168114620005a457600080fd5b919050565b634e487b7160e01b600052604160045260246000fd5b604051601f8201601f191681016001600160401b0381118282101715620005ea57620005ea620005a9565b604052919050565b600082601f8301126200060457600080fd5b60405160e081016001600160401b0381118282101715620006295762000629620005a9565b6040528060e08401858111156200063f57600080fd5b845b818110156200065b57805183526020928301920162000641565b509195945050505050565b600082601f8301126200067857600080fd5b81516001600160401b03811115620006945762000694620005a9565b6020620006aa601f8301601f19168201620005bf565b8281528582848701011115620006bf57600080fd5b60005b83811015620006df578581018301518282018401528201620006c2565b83811115620006f15760008385840101525b5095945050505050565b80516001600160801b0381168114620005a457600080fd5b600060c082840312156200072657600080fd5b60405160c081016001600160401b03811182821017156200074b576200074b620005a9565b6040529050806200075c83620006fb565b81526200076c60208401620006fb565b60208201526200077f60408401620006fb565b60408201526200079260608401620006fb565b6060820152620007a560808401620006fb565b6080820152620007b860a08401620006fb565b60a08201525092915050565b60008060008060008060008060008060006103808c8e031215620007e757600080fd5b620007f28c6200058c565b9a506200080260208d016200058c565b99506200081260408d016200058c565b98506200082260608d016200058c565b975060808c015196506200083a8d60a08e01620005f2565b95506200084c8d6101808e01620005f2565b6102608d01519095506001600160401b038111156200086a57600080fd5b620008788e828f0162000666565b6102808e015190955090506001600160401b038111156200089857600080fd5b620008a68e828f0162000666565b935050620008b98d6102a08e0162000713565b9150620008ca6103608d016200058c565b90509295989b509295989b9093969950565b600181811c90821680620008f157607f821691505b602082108114156200091357634e487b7160e01b600052602260045260246000fd5b50919050565b600080835481600182811c9150808316806200093657607f831692505b60208084108214156200095757634e487b7160e01b86526022600452602486fd5b8180156200096e57600181146200098057620009af565b60ff19861689528489019650620009af565b60008a81526020902060005b86811015620009a75781548b8201529085019083016200098c565b505084890196505b509498975050505050505050565b634e487b7160e01b600052601260045260246000fd5b60805160a05160c0516152f962000a0360003960006110c701526000611092015260006105df01526152f96000f3fe608060405234801561001057600080fd5b50600436106104745760003560e01c80636de6837411610257578063a217fddf11610146578063dd0bdb03116100c3578063f3cc699311610087578063f3cc699314610ad6578063f589826214610adf578063f7b0844a14610af2578063f8801df314610afb578063ff842f0d14610b0457600080fd5b8063dd0bdb0314610a69578063dd62ed3e14610a7c578063e5b65e6414610aa7578063ef5e63f714610ab0578063f2fde38b14610ac357600080fd5b8063b843eb201161010a578063b843eb20146109ec578063b8b89e1b14610a0c578063d505accf14610a15578063d5260d3114610a28578063d547741f14610a5657600080fd5b8063a217fddf1461098b578063a9059cbb14610993578063aabaecd6146109a6578063ae7ec18c146109b9578063b1525595146109cc57600080fd5b80638adce2b4116101d4578063942b6a9811610198578063942b6a981461093757806394b91f3a1461094a57806395d89b411461095d57806398cf496c1461096557806399c9915d1461097857600080fd5b80638adce2b41461087a5780638ce74426146108f75780638da5cb5b1461090a5780638df0bd431461091b57806391d148541461092457600080fd5b806375b238fc1161021b57806375b238fc146108045780637931980a1461082b5780637e5f025f1461083e5780637ecebe0014610851578063825423731461087157600080fd5b80636de68374146107935780636e553f65146107b657806370a08231146107c9578063715018a6146107e95780637158da7c146107f157600080fd5b8063387254ce1161037357806345857154116102f05780635df48da3116102b45780635df48da3146107175780636724589e1461072a57806367a35e471461073d57806367e81e11146107505780636cc698171461078057600080fd5b806345857154146106cc57806348b7002f146106dd57806349be5a22146106f05780634c894024146106f95780635c975abb1461070c57600080fd5b80633b9d7454116103375780633b9d74541461068e5780633d6b2e85146106965780633f3e4c11146106a95780633f4ba83a146106bc578063439766ce146106c457600080fd5b8063387254ce1461062e578063388238461461063757806339a597531461064a5780633a5cd401146106725780633b1f719c1461067b57600080fd5b806318160ddd116104015780632ab4d052116103c55780632ab4d052146105be5780632f2ff15d146105c7578063313ce567146105da5780633644e5151461061357806336568abe1461061b57600080fd5b806318160ddd146105595780631a248b4114610562578063219502601461057557806323b872dd14610588578063248a9ca31461059b57600080fd5b806306fdde031161044857806306fdde03146104e0578063095ea7b3146104f557806311fad3121461050857806313b2bf791461051b57806317d69bc81461052e57600080fd5b8062f714ce14610479578063016334071461049f57806301ffc9a7146104a857806305056a57146104cb575b600080fd5b61048c610487366004614766565b610b17565b6040519081526020015b60405180910390f35b61048c60285481565b6104bb6104b6366004614796565b610d49565b6040519015158152602001610496565b6104de6104d93660046147d7565b610d80565b005b6104e8610dc9565b604051610496919061481e565b6104bb610503366004614851565b610e57565b6104de61051636600461487d565b610ec3565b61048c61052936600461487d565b610ef2565b600c54610541906001600160a01b031681565b6040516001600160a01b039091168152602001610496565b61048c60025481565b6104de610570366004614896565b610f09565b61054161058336600461487d565b610f57565b6104bb6105963660046148b3565b610f81565b61048c6105a936600461487d565b60009081526007602052604090206001015490565b61048c60125481565b6104de6105d5366004614766565b611063565b6106017f000000000000000000000000000000000000000000000000000000000000000081565b60405160ff9091168152602001610496565b61048c61108e565b6104de610629366004614766565b6110e9565b61048c60145481565b61048c6106453660046149c3565b611167565b61065d6106583660046149c3565b611615565b60408051928352602083019190915201610496565b61048c60105481565b61048c6106893660046149ee565b611677565b61048c611789565b61048c6106a4366004614851565b611a13565b6104de6106b736600461487d565b611ad5565b6104de611b04565b6104de611b38565b6104de6106da36600461487d565b50565b6104de6106eb3660046147d7565b611b6a565b61048c60115481565b6104de6107073660046147d7565b611bb6565b60095460ff166104bb565b61048c61072536600461487d565b611bff565b6104de610738366004614a0a565b611c0f565b61048c61074b366004614a7e565b611c6c565b61076361075e3660046149c3565b611d0e565b604080519283526001600160a01b03909116602083015201610496565b6104de61078e366004614896565b611d68565b6104bb6107a1366004614896565b602b6020526000908152604090205460ff1681565b61048c6107c4366004614766565b611df8565b61048c6107d7366004614896565b60036020526000908152604090205481565b6104de611efb565b600d54610541906001600160a01b031681565b61048c7fa49807205ce4d355092ef5a8a18f56e8913cf4a201fbe287825b095693c2177581565b61048c6108393660046149c3565b611f2f565b6104de61084c3660046147d7565b611faf565b61048c61085f366004614896565b60056020526000908152604090205481565b61048c60195481565b602c54602d54602e546108b5926001600160801b0380821693600160801b928390048216938183169391829004831692818116929091041686565b604080516001600160801b03978816815295871660208701529386169385019390935290841660608401528316608083015290911660a082015260c001610496565b600b54610541906001600160a01b031681565b6006546001600160a01b0316610541565b61048c60185481565b6104bb610932366004614766565b611ff8565b6104de6109453660046147d7565b612023565b6104de61095836600461487d565b61206f565b6104e86120c8565b6104bb610973366004614ab9565b6120d5565b61065d6109863660046149c3565b61212e565b61048c600081565b6104bb6109a1366004614851565b612367565b600e54610541906001600160a01b031681565b6104de6109c736600461487d565b6123cd565b61048c6109da366004614896565b60296020526000908152604090205481565b6109ff6109fa366004614aeb565b6123fc565b6040516104969190614b08565b61048c60135481565b6104de610a23366004614b48565b612473565b610a3b610a36366004614bb9565b6126c4565b60408051938452602084019290925290820152606001610496565b6104de610a64366004614766565b6127fc565b6104de610a773660046147d7565b612822565b61048c610a8a366004614be6565b600460209081526000928352604080842090915290825290205481565b61048c60155481565b610763610abe366004614c14565b61286e565b6104de610ad1366004614896565b6128ce565b61048c600f5481565b6104de610aed366004614c5f565b612966565b61048c60175481565b61048c60165481565b6104de610b12366004614c81565b612a66565b6000610b2560095460ff1690565b15610b4b5760405162461bcd60e51b8152600401610b4290614cc4565b60405180910390fd5b82610b6957604051638c88122d60e01b815260040160405180910390fd5b6000610b7484612b8c565b600e549091506000908190610b91906001600160a01b0316612bbb565b925050915081831115610cc9576000610baa8385614d04565b905060005b600a5460ff82161015610c8957600a8160ff1681548110610bd257610bd2614d1b565b600091825260209091200154600e54604051627b8a6760e11b8152600481018590526001600160a01b03918216602482015291169062f714ce90604401602060405180830381600087803b158015610c2957600080fd5b505af1158015610c3d573d6000803e3d6000fd5b505050506040513d601f19601f82011682018060405250810190610c619190614d31565b610c6b9083614d04565b915081610c7757610c89565b80610c8181614d4a565b915050610baf565b50600e54610c9f906001600160a01b0316612bbb565b9194509092505082841115610cc75760405163b84beb5d60e01b815260040160405180910390fd5b505b610cd38382612cc3565b9350610cdf3387612d16565b600e54610cf6906001600160a01b03168686612d80565b604080516001600160a01b0387168152602081018890529081018590527ff279e6a1f5e320cca91135676d9cb6e44ca8a08c0b88342bcdb1144f6511b5689060600160405180910390a150505092915050565b60006001600160e01b03198216637965db0b60e01b1480610d7a57506301ffc9a760e01b6001600160e01b03198316145b92915050565b6006546001600160a01b03163314610daa5760405162461bcd60e51b8152600401610b4290614d6a565b602c80546001600160801b03928316600160801b029216919091179055565b60008054610dd690614d9f565b80601f0160208091040260200160405190810160405280929190818152602001828054610e0290614d9f565b8015610e4f5780601f10610e2457610100808354040283529160200191610e4f565b820191906000526020600020905b815481529060010190602001808311610e3257829003601f168201915b505050505081565b3360008181526004602090815260408083206001600160a01b038716808552925280832085905551919290917f8c5be1e5ebec7d5bd14f71427d1e84f3dd0314c0f7b2291e5b200ac8c7c3b92590610eb29086815260200190565b60405180910390a350600192915050565b6006546001600160a01b03163314610eed5760405162461bcd60e51b8152600401610b4290614d6a565b601355565b601a8160078110610f0257600080fd5b0154905081565b6006546001600160a01b03163314610f335760405162461bcd60e51b8152600401610b4290614d6a565b6001600160a01b03166000908152602b60205260409020805460ff19166001179055565b600a8181548110610f6757600080fd5b6000918252602090912001546001600160a01b0316905081565b6001600160a01b03831660009081526004602090815260408083203384529091528120546000198114610fdd57610fb88382614d04565b6001600160a01b03861660009081526004602090815260408083203384529091529020555b6001600160a01b03851660009081526003602052604081208054859290611005908490614d04565b90915550506001600160a01b03808516600081815260036020526040908190208054870190555190918716906000805160206152a48339815191529061104e9087815260200190565b60405180910390a360019150505b9392505050565b60008281526007602052604090206001015461107f8133612df9565b6110898383612e5d565b505050565b60007f000000000000000000000000000000000000000000000000000000000000000046146110c4576110bf612ee3565b905090565b507f000000000000000000000000000000000000000000000000000000000000000090565b6001600160a01b03811633146111595760405162461bcd60e51b815260206004820152602f60248201527f416363657373436f6e74726f6c3a2063616e206f6e6c792072656e6f756e636560448201526e103937b632b9903337b91039b2b63360891b6064820152608401610b42565b6111638282612f7d565b5050565b6000600260085414156111bc5760405162461bcd60e51b815260206004820152601f60248201527f5265656e7472616e637947756172643a207265656e7472616e742063616c6c006044820152606401610b42565b600260085560095460ff16156111e45760405162461bcd60e51b8152600401610b4290614cc4565b6000806111f18585611615565b336000908152602b6020526040902054919350915060ff16611260576000611217611789565b9050600061122d6112288484614dd4565b612fe4565b9050600061123a83612fe4565b821290508061125c57604051630da448ed60e21b815260040160405180910390fd5b5050505b600061126a613020565b90506000816001600160a01b031663210fc56a886060015189608001518a600001518b602001518c60400151600e60009054906101000a90046001600160a01b03166040518763ffffffff1660e01b81526004016112cd96959493929190614e15565b602060405180830381600087803b1580156112e757600080fd5b505af11580156112fb573d6000803e3d6000fd5b505050506040513d601f19601f8201168201806040525081019061131f9190614e4d565b90506001600160a01b03811661134857604051634f13847960e11b815260040160405180910390fd5b6113cf81836113ca89856001600160a01b031663313ce5676040518163ffffffff1660e01b815260040160206040518083038186803b15801561138a57600080fd5b505afa15801561139e573d6000803e3d6000fd5b505050506040513d601f19601f820116820180604052508101906113c29190614e6a565b60ff16612cc3565b6130a9565b6114178133306114128a866001600160a01b031663313ce5676040518163ffffffff1660e01b815260040160206040518083038186803b15801561138a57600080fd5b613121565b60405163e49280cb60e01b81526001600160a01b038281166004830152602482018890526000919084169063e49280cb906044016040805180830381600087803b15801561146457600080fd5b505af1158015611478573d6000803e3d6000fd5b505050506040513d601f19601f8201168201806040525081019061149c9190614e87565b604080516001600160a01b0386168152602081018b9052908101889052606081018290523360808201529092507fe988243c7383c2c950aab9b716103bb6d91f015900ef405467025fbdc3fe1ecd915060a00160405180910390a1876020015161155a5760008060006115218a8c604001518d600001516014546016546017546131bb565b601483905560168290556017819055601080549396509194509250859160009061154c908490614d04565b909155506115af9350505050565b600080600061157b8a8c604001518d600001516015546018546019546131bb565b60158390556018829055601981905560108054939650919450925085916000906115a6908490614d04565b90915550505050505b600c546040805163313ce56760e01b81529051611604926001600160a01b03169133916115ff918a91859163313ce567916004808301926020929190829003018186803b15801561138a57600080fd5b612d80565b505060016008555092949350505050565b6000806000806116268660016126c4565b509092509050611636828661327d565b9350915081831580611646575082155b1561166e576040516330cf3a1360e21b81526004810185905260248101849052604401610b42565b50509250929050565b60008061168383613289565b9050600061169f84602001518386604001518760000151611c6c565b9050806116bf576040516304485c2d60e41b815260040160405180910390fd5b835142106116e0576040516366bfac3d60e01b815260040160405180910390fd5b6040808501518551600f5460208801519351635f16f8c960e11b815260009473__$eb86d565a3113b3c398b1080d0d395c3b4$__9463be2df19294611730948a94929391928a9290600401614eb5565b60206040518083038186803b15801561174857600080fd5b505af415801561175c573d6000803e3d6000fd5b505050506040513d601f19601f820116820180604052508101906117809190614d31565b95945050505050565b600d54600c5460009182916117aa916001600160a01b039081169116613299565b90506000600f54905060008060175460001461186e5760006117d3600086601654601754611c6c565b60165460175460405163679dfe3160e01b815292935073__$eb86d565a3113b3c398b1080d0d395c3b4$__9263679dfe319261181a928a9287908b90600090600401614eb5565b60206040518083038186803b15801561183257600080fd5b505af4158015611846573d6000803e3d6000fd5b505050506040513d601f19601f8201168201806040525081019061186a9190614d31565b9250505b60195415611924576000611889600186601854601954611c6c565b60185460195460405163679dfe3160e01b815292935073__$eb86d565a3113b3c398b1080d0d395c3b4$__9263679dfe31926118d0928a9287908b90600190600401614eb5565b60206040518083038186803b1580156118e857600080fd5b505af41580156118fc573d6000803e3d6000fd5b505050506040513d601f19601f820116820180604052508101906119209190614d31565b9150505b6000805b600a5460ff821610156119ea57600a8160ff168154811061194b5761194b614d1b565b60009182526020918290200154604080516362a48bb760e11b815290516001600160a01b039092169263c549176e92600480840193829003018186803b15801561199457600080fd5b505afa1580156119a8573d6000803e3d6000fd5b505050506040513d601f19601f820116820180604052508101906119cc9190614d31565b6119d69083614dd4565b9150806119e281614d4a565b915050611928565b50806119f68385614dd4565b6119ff90614edf565b611a099190614dd4565b9550505050505090565b6000611a2160095460ff1690565b15611a3e5760405162461bcd60e51b8152600401610b4290614cc4565b6000611a48613020565b60405163dac9675b60e01b81526001600160a01b03868116600483015291925060009183169063dac9675b9060240160c06040518083038186803b158015611a8f57600080fd5b505afa158015611aa3573d6000803e3d6000fd5b505050506040513d601f19601f82011682018060405250810190611ac79190614ef5565b905061178081868685613307565b6006546001600160a01b03163314611aff5760405162461bcd60e51b8152600401610b4290614d6a565b601255565b6006546001600160a01b03163314611b2e5760405162461bcd60e51b8152600401610b4290614d6a565b611b366137a4565b565b6006546001600160a01b03163314611b625760405162461bcd60e51b8152600401610b4290614d6a565b611b36613837565b6006546001600160a01b03163314611b945760405162461bcd60e51b8152600401610b4290614d6a565b602e80546001600160801b0319166001600160801b0392909216919091179055565b6006546001600160a01b03163314611be05760405162461bcd60e51b8152600401610b4290614d6a565b602e80546001600160801b03928316600160801b029216919091179055565b60218160078110610f0257600080fd5b6006546001600160a01b03163314611c395760405162461bcd60e51b8152600401610b4290614d6a565b6001600160801b03958616600160801b958716860217602c55928516918516840291909117602d55831692160217602e55565b600080611c876301e187e0611c814286614d04565b90612aad565b9050846000611ca082611c9a8189614f9c565b9061388f565b6040805180820190915281815260208101859052909150600089611cc557601a611cc8565b60215b6040805160e0810191829052919060079082845b815481526020019060010190808311611cdc5750505050509050611d008183613955565b9a9950505050505050505050565b600080611d1d60095460ff1690565b15611d3a5760405162461bcd60e51b8152600401610b4290614cc4565b6000611d44613020565b9050611d508582613a32565b9150611d5e85838684613307565b9250509250929050565b6006546001600160a01b03163314611d925760405162461bcd60e51b8152600401610b4290614d6a565b600a80546001810182556000919091527fc65a7bb8d6351c1cf70c95a316cc6a92839c986682d98bc35f958f4883f9d2a80180546001600160a01b0319166001600160a01b0383811691909117909155600c546012546106da92919091169083906130a9565b6000611e0660095460ff1690565b15611e235760405162461bcd60e51b8152600401610b4290614cc4565b82611e415760405163162908e360e11b815260040160405180910390fd5b611e4a83613cab565b905080611e6a57604051638c88122d60e01b815260040160405180910390fd5b600e54611e82906001600160a01b0316333086613121565b611e8c8282613d84565b604080516001600160a01b0384168152602081018590529081018290527f90890809c654f11d6e72a28fa60149770a0d11ec6c92319d6ceb2bb0a4ea1a159060600160405180910390a16012546002541115610d7a57604051637be9badb60e01b815260040160405180910390fd5b6006546001600160a01b03163314611f255760405162461bcd60e51b8152600401610b4290614d6a565b611b366000613dd6565b600080611f3b84611677565b90506000670de0b6b3a76400008410611f545781611f5e565b611f5e828561327d565b90506000611f6b86613289565b90506000611f8460025487612aad90919063ffffffff16565b90506000611f92838361327d565b9050838111611fa15783611fa3565b805b98975050505050505050565b6006546001600160a01b03163314611fd95760405162461bcd60e51b8152600401610b4290614d6a565b602d80546001600160801b03928316600160801b029216919091179055565b60009182526007602090815260408084206001600160a01b0393909316845291905290205460ff1690565b6006546001600160a01b0316331461204d5760405162461bcd60e51b8152600401610b4290614d6a565b602d80546001600160801b0319166001600160801b0392909216919091179055565b6006546001600160a01b031633146120995760405162461bcd60e51b8152600401610b4290614d6a565b600a81815481106120ac576120ac614d1b565b600091825260209091200180546001600160a01b031916905550565b60018054610dd690614d9f565b6006546000906001600160a01b031633146121025760405162461bcd60e51b8152600401610b4290614d6a565b8161211a57612114601a8460076146e4565b50610d7a565b61212760218460076146e4565b5092915050565b60008060008061213f8660006126c4565b509150915061217160405180608001604052806000815260200160008152602001600015158152602001600081525090565b61217b838761327d565b8152600061218888613289565b90506000612194611789565b905060006121a56112288684614dd4565b60025485519192506000916121b991612aad565b90506121c483612fe4565b8212604086015260006121df6121d8613e28565b8490612aad565b905060008c602001516121f257856121f8565b8c604001515b9050612204818461327d565b6020880152865161221990611c81838561327d565b60608801526040870151156122ae576000601354886060015111612241578760600151612245565b6013545b885190915060009061225890839061327d565b89516122649190614d04565b905061227d89602001518361327d90919063ffffffff16565b896020015161228c9190614d04565b60208a01819052811061229f57806122a5565b88602001515b9c50505061231f565b86516060880151600091906122c3908261327d565b6122cd9190614fdb565b9050818860200151101561231957602088015160608901516122ef908261327d565b6122f99190614fdb565b60208901819052811061230c5780612312565b87602001515b9b5061231d565b819b505b505b8799508a6000148061232f575089155b15612357576040516330cf3a1360e21b8152600481018c9052602481018b9052604401610b42565b5050505050505050509250929050565b33600090815260036020526040812080548391908390612388908490614d04565b90915550506001600160a01b038316600081815260036020526040908190208054850190555133906000805160206152a483398151915290610eb29086815260200190565b6006546001600160a01b031633146123f75760405162461bcd60e51b8152600401610b4290614d6a565b602855565b61240461471e565b8161243e576040805160e081019182905290601a9060079082845b81548152602001906001019080831161241f5750505050509050919050565b6040805160e0810191829052602180548252909160079060226020850180831161241f5750505050509050919050565b919050565b428410156124c35760405162461bcd60e51b815260206004820152601760248201527f5045524d49545f444541444c494e455f455850495245440000000000000000006044820152606401610b42565b60006124cd61108e565b6001600160a01b0389811660008181526005602090815260409182902080546001810190915582517f6e71edae12b1b97f4d1f60370fef10105fa2faae0126114a169c64845d6126c98184015280840194909452938c166060840152608083018b905260a083019390935260c08083018a90528151808403909101815260e08301909152805192019190912061190160f01b6101008301526101028201929092526101228101919091526101420160408051601f198184030181528282528051602091820120600080855291840180845281905260ff88169284019290925260608301869052608083018590529092509060019060a0016020604051602081039080840390855afa1580156125e6573d6000803e3d6000fd5b5050604051601f1901519150506001600160a01b0381161580159061261c5750886001600160a01b0316816001600160a01b0316145b6126595760405162461bcd60e51b815260206004820152600e60248201526d24a72b20a624a22fa9a4a3a722a960911b6044820152606401610b42565b6001600160a01b0390811660009081526004602090815260408083208b8516808552908352928190208a905551898152919350918a16917f8c5be1e5ebec7d5bd14f71427d1e84f3dd0314c0f7b2291e5b200ac8c7c3b925910160405180910390a350505050505050565b60008060006126d285613289565b905060006126ee86602001518388604001518960000151611c6c565b90508061270e576040516304485c2d60e41b815260040160405180910390fd5b8415612724576028546127219082614d04565b90505b85514210612745576040516366bfac3d60e01b815260040160405180910390fd5b61274e86613289565b6040808801518851600f5460208b0151935163d98ac76960e01b815294965073__$eb86d565a3113b3c398b1080d0d395c3b4$__9463d98ac7699461279e94899490939092899290600401614eb5565b604080518083038186803b1580156127b557600080fd5b505af41580156127c9573d6000803e3d6000fd5b505050506040513d601f19601f820116820180604052508101906127ed9190614ff3565b90979096509194509092505050565b6000828152600760205260409020600101546128188133612df9565b6110898383612f7d565b6006546001600160a01b0316331461284c5760405162461bcd60e51b8152600401610b4290614d6a565b602c80546001600160801b0319166001600160801b0392909216919091179055565b6000807fa49807205ce4d355092ef5a8a18f56e8913cf4a201fbe287825b095693c2177561289c8133612df9565b60006128a6613020565b90506128b28882613a32565b925060006128c08789615017565b905050505094509492505050565b6006546001600160a01b031633146128f85760405162461bcd60e51b8152600401610b4290614d6a565b6001600160a01b03811661295d5760405162461bcd60e51b815260206004820152602660248201527f4f776e61626c653a206e6577206f776e657220697320746865207a65726f206160448201526564647265737360d01b6064820152608401610b42565b6106da81613dd6565b7fa49807205ce4d355092ef5a8a18f56e8913cf4a201fbe287825b095693c217756129918133612df9565b60095460ff16156129b45760405162461bcd60e51b8152600401610b4290614cc4565b602a546129c084614046565b131561108957600a82815481106129d9576129d9614d1b565b60009182526020909120015460405163fbaac11560e01b8152600481018590526001600160a01b039091169063fbaac11590602401602060405180830381600087803b158015612a2857600080fd5b505af1158015612a3c573d6000803e3d6000fd5b505050506040513d601f19601f82011682018060405250810190612a609190614d31565b50505050565b6006546001600160a01b03163314612a905760405162461bcd60e51b8152600401610b4290614d6a565b601495909555601593909355601691909155601755601855601955565b600061105c83670de0b6b3a7640000845b600080806000198587098587029250828110838203039150508060001415612af957838281612aef57612aef615036565b049250505061105c565b838110612b2357604051631dcf306360e21b81526004810182905260248101859052604401610b42565b60008486880960026001871981018816978890046003810283188082028403028082028403028082028403028082028403028082028403029081029092039091026000889003889004909101858311909403939093029303949094049190911702949350505050565b600060025460001415612b9d575090565b6000612ba7613e28565b60025490915061105c90611c81858461327d565b6040516370a0823160e01b8152306004820152600090819081906001600160a01b038516906370a082319060240160206040518083038186803b158015612c0157600080fd5b505afa158015612c15573d6000803e3d6000fd5b505050506040513d601f19601f82011682018060405250810190612c399190614d31565b9150836001600160a01b031663313ce5676040518163ffffffff1660e01b815260040160206040518083038186803b158015612c7457600080fd5b505afa158015612c88573d6000803e3d6000fd5b505050506040513d601f19601f82011682018060405250810190612cac9190614e6a565b60ff169050612cbb8282614062565b949193509150565b60006012821115612cea576040516342d94fd760e11b815260048101839052602401610b42565b6000612cf7836012614d04565b9050612d0481600a615130565b612d0e908561513c565b949350505050565b6001600160a01b03821660009081526003602052604081208054839290612d3e908490614d04565b90915550506002805482900390556040518181526000906001600160a01b038416906000805160206152a4833981519152906020015b60405180910390a35050565b600060405163a9059cbb60e01b81526001600160a01b03841660048201528260248201526000806044836000895af1915050612dbb816140ad565b612a605760405162461bcd60e51b815260206004820152600f60248201526e1514905394d1915497d19052531151608a1b6044820152606401610b42565b612e038282611ff8565b61116357612e1b816001600160a01b031660146140f4565b612e268360206140f4565b604051602001612e3792919061515e565b60408051601f198184030181529082905262461bcd60e51b8252610b429160040161481e565b612e678282611ff8565b6111635760008281526007602090815260408083206001600160a01b03851684529091529020805460ff19166001179055612e9f3390565b6001600160a01b0316816001600160a01b0316837f2f8788117e7eff1d82e926ec794901d17c78024a50270940304540a733656f0d60405160405180910390a45050565b60007f8b73c3c69bb8fe3d512ecc4cf759cc79239f7b179b0ffacaa9a75d522b39400f6000604051612f1591906151d3565b6040805191829003822060208301939093528101919091527fc89efdaa54c0f20c7adf612882df0950f5a951637e0307cdcb4c672f298b8bc660608201524660808201523060a082015260c00160405160208183030381529060405280519060200120905090565b612f878282611ff8565b156111635760008281526007602090815260408083206001600160a01b0385168085529252808320805460ff1916905551339285917ff6391f5c32d9c69d2a47ea670b442974b53935d1edc7fd64eb21e047a839171b9190a45050565b6000600160ff1b82141561300b57604051631d0742e360e21b815260040160405180910390fd5b600082126130195781610d7a565b5060000390565b600080600b60009054906101000a90046001600160a01b03166001600160a01b031663d6eb97916040518163ffffffff1660e01b815260040160206040518083038186803b15801561307157600080fd5b505afa158015613085573d6000803e3d6000fd5b505050506040513d601f19601f82011682018060405250810190610d7a9190614e4d565b600060405163095ea7b360e01b81526001600160a01b03841660048201528260248201526000806044836000895af19150506130e4816140ad565b612a605760405162461bcd60e51b815260206004820152600e60248201526d1054141493d59157d1905253115160921b6044820152606401610b42565b600084905060006040516323b872dd60e01b81526001600160a01b03861660048201526001600160a01b03851660248201528360448201526000806064836000875af1915050613170816140ad565b6131b35760405162461bcd60e51b81526020600482015260146024820152731514905394d1915497d19493d357d1905253115160621b6044820152606401610b42565b505050505050565b60008080670de0b6b3a7640000898714156131e157600080600093509350935050613271565b86156131fe576131fb6131f48b89614d04565b8b90612aad565b90505b600061321282670de0b6b3a7640000614fdb565b905060006132208c8a614d04565b9050600061322e848d61327d565b613238848b61327d565b6132429190614d04565b90506000613250858d61327d565b61325a858b61327d565b6132649190614d04565b9297509095509093505050505b96509650969350505050565b600061105c8383614290565b6000610d7a826060015183608001515b6000806132a4614352565b60405163051ce29b60e21b81526001600160a01b03868116600483015285811660248301529192506000918316906314738a6c9060440160206040518083038186803b1580156132f357600080fd5b505afa15801561175c573d6000803e3d6000fd5b600080613314868561212e565b50600c546040805163313ce56760e01b8152905192935061336c926001600160a01b039092169133913091611412918791869163313ce567916004808301926020929190829003018186803b15801561138a57600080fd5b6000836001600160a01b0316630b0471376040518060c001604052808a6000015181526020018a60200151151581526020016402540be4008b604001516133b3919061513c565b815260608b8101516001600160a01b039081166020808501919091526080808f01518316604080870191909152600e54841695850195909552845160e088901b6001600160e01b03191681528651600482015291860151151560248301529385015160448201529184015181166064830152918301518216608482015260a0909201511660a482015260c4810188905260e40160206040518083038186803b15801561345e57600080fd5b505afa158015613472573d6000803e3d6000fd5b505050506040513d601f19601f820116820180604052508101906134969190614d31565b600e546040516370a0823160e01b815230600482015291925082916001600160a01b03909116906370a082319060240160206040518083038186803b1580156134de57600080fd5b505afa1580156134f2573d6000803e3d6000fd5b505050506040513d601f19601f820116820180604052508101906135169190614d31565b101561353557604051631beca90f60e01b815260040160405180910390fd5b600e5460405163095ea7b360e01b81526001600160a01b038681166004830152602482018490529091169063095ea7b390604401602060405180830381600087803b15801561358357600080fd5b505af1158015613597573d6000803e3d6000fd5b505050506040513d601f19601f820116820180604052508101906135bb919061526f565b506040516389a86ad360e01b81526001600160a01b03878116600483015260248201879052604482018390528516906389a86ad3906064016040805180830381600087803b15801561360c57600080fd5b505af1158015613620573d6000803e3d6000fd5b505050506040513d601f19601f820116820180604052508101906136449190614e87565b604080516001600160a01b038a16815260208101899052908101859052606081018290523360808201529092507f807243a06aa6324afb44b093c16090c302133c76a8ce9f9ba4f74cdae3c0f2b0915060a00160405180910390a186602001516137025760008060006136c9888b604001518c600001516014546016546017546143a3565b60148390556016829055601781905560108054939650919450925085916000906136f4908490614fdb565b909155506137579350505050565b6000806000613723888b604001518c600001516015546018546019546143a3565b601583905560188290556019819055601080549396509194509250859160009061374e908490614fdb565b90915550505050505b61379986336115ff888a6001600160a01b031663313ce5676040518163ffffffff1660e01b815260040160206040518083038186803b15801561138a57600080fd5b509295945050505050565b60095460ff166137ed5760405162461bcd60e51b815260206004820152601460248201527314185d5cd8589b194e881b9bdd081c185d5cd95960621b6044820152606401610b42565b6009805460ff191690557f5db9ee0a495bf2e6ff9c91a7834c1ba4fdd244a5e8aa4e537bd38aeae4b073aa335b6040516001600160a01b03909116815260200160405180910390a1565b60095460ff161561385a5760405162461bcd60e51b8152600401610b4290614cc4565b6009805460ff191660011790557f62e78cea01bee320cd4e420270b5ea74000d11b0c9f74754ebdbfc544b05a25861381a3390565b6000600160ff1b8314806138a65750600160ff1b82145b156138c45760405163b3c754a360e01b815260040160405180910390fd5b600080600085126138d557846138da565b846000035b9150600084126138ea57836138ef565b836000035b9050600061390683670de0b6b3a764000084612abe565b90506001600160ff1b0381111561393357604051637cb4bef560e01b815260048101829052602401610b42565b60001980871390861380821860011461394c5782611fa3565b611fa383614edf565b60208201518251600091829161396b9190614dd4565b9050600061398984600160200201518660035b60200201519061442c565b84516139979087600261397e565b6139a19190614dd4565b602085015185519192506000916139c591906139bf9089600561397e565b9061442c565b85516139df906139d79088600061397e565b88600461397e565b6139e99190614dd4565b9050613a09613a01866001602002015187600161397e565b87600661397e565b81613a148486614dd4565b613a1e9190614dd4565b613a289190614dd4565b9695505050505050565b8151602e5460009190613a4e906001600160801b031642614fdb565b1180613a765750602e54613a7290600160801b90046001600160801b031642614fdb565b8351115b15613a94576040516366bfac3d60e01b815260040160405180910390fd5b826020015115613af4576040830151602d546001600160801b03161180613ad15750602d546040840151600160801b9091046001600160801b0316105b15613aef5760405163e04ba97560e01b815260040160405180910390fd5b613b45565b6040830151602c546001600160801b03161180613b275750602c546040840151600160801b9091046001600160801b0316105b15613b455760405163e04ba97560e01b815260040160405180910390fd5b600e5460a08401516001600160a01b03908116911614613b7857604051639d3b9e0160e01b815260040160405180910390fd5b600c5460808401516001600160a01b03908116911614613bab5760405163b3e8cda760e01b815260040160405180910390fd5b600d5460608401516001600160a01b03908116911614613bde5760405163bff9e44560e01b815260040160405180910390fd5b6060830151608084015184516020860151604080880151600e54915163b10efd7f60e01b81526001600160a01b038981169763b10efd7f97613c30979196909591949093909290911690600401614e15565b602060405180830381600087803b158015613c4a57600080fd5b505af1158015613c5e573d6000803e3d6000fd5b505050506040513d601f19601f82011682018060405250810190613c829190614e4d565b90506001600160a01b038116610d7a5760405163ecdc661560e01b815260040160405180910390fd5b600080613d4083600e60009054906101000a90046001600160a01b03166001600160a01b031663313ce5676040518163ffffffff1660e01b815260040160206040518083038186803b158015613d0057600080fd5b505afa158015613d14573d6000803e3d6000fd5b505050506040513d601f19601f82011682018060405250810190613d389190614e6a565b60ff16614062565b905060025460001415613d5557809150613d7e565b6000613d5f613e28565b9050613d7a81611c816002548561327d90919063ffffffff16565b9250505b50919050565b8060026000828254613d969190614fdb565b90915550506001600160a01b0382166000818152600360209081526040808320805486019055518481526000805160206152a48339815191529101612d74565b600680546001600160a01b038381166001600160a01b0319831681179093556040519116919082907f8be0079c531659141344cd1fd0a4f28419497f9722a3daafe3b4186f6b6457e090600090a35050565b600080613e7f601054600e60009054906101000a90046001600160a01b03166001600160a01b031663313ce5676040518163ffffffff1660e01b815260040160206040518083038186803b158015613d0057600080fd5b600e546040516370a0823160e01b8152306004820152613f4a916001600160a01b0316906370a082319060240160206040518083038186803b158015613ec457600080fd5b505afa158015613ed8573d6000803e3d6000fd5b505050506040513d601f19601f82011682018060405250810190613efc9190614d31565b600e60009054906101000a90046001600160a01b03166001600160a01b031663313ce5676040518163ffffffff1660e01b815260040160206040518083038186803b158015613d0057600080fd5b613f549190614fdb565b905060005b600a5460ff8216101561401b57600a8160ff1681548110613f7c57613f7c614d1b565b600091825260209182902001546040805163b7aa436d60e01b815290516001600160a01b039092169263b7aa436d92600480840193829003018186803b158015613fc557600080fd5b505afa158015613fd9573d6000803e3d6000fd5b505050506040513d601f19601f82011682018060405250810190613ffd9190614d31565b6140079083614fdb565b91508061401381614d4a565b915050613f59565b5060006140266144ee565b61402e6145e9565b6140389190614fdb565b90506000612d0e8284614d04565b60008082121561405e5761405982614edf565b610d7a565b5090565b60006012821115614089576040516342d94fd760e11b815260048101839052602401610b42565b6000614096836012614d04565b90506140a381600a615130565b612d0e9085615017565b60003d826140bf57806000803e806000fd5b80602081146140d75780156140e857600092506140ed565b816000803e600051151592506140ed565b600192505b5050919050565b60606000614103836002615017565b61410e906002614fdb565b67ffffffffffffffff811115614126576141266148f4565b6040519080825280601f01601f191660200182016040528015614150576020820181803683370190505b509050600360fc1b8160008151811061416b5761416b614d1b565b60200101906001600160f81b031916908160001a905350600f60fb1b8160018151811061419a5761419a614d1b565b60200101906001600160f81b031916908160001a90535060006141be846002615017565b6141c9906001614fdb565b90505b6001811115614241576f181899199a1a9b1b9c1cb0b131b232b360811b85600f16601081106141fd576141fd614d1b565b1a60f81b82828151811061421357614213614d1b565b60200101906001600160f81b031916908160001a90535060049490941c9361423a8161528c565b90506141cc565b50831561105c5760405162461bcd60e51b815260206004820181905260248201527f537472696e67733a20686578206c656e67746820696e73756666696369656e746044820152606401610b42565b60008080600019848609848602925082811083820303915050670de0b6b3a764000081106142d45760405163698d9a0160e11b815260048101829052602401610b42565b600080670de0b6b3a76400008688099150506706f05b59d3b1ffff81118261430e5780670de0b6b3a7640000850401945050505050610d7a565b620400008285030493909111909103600160ee1b02919091177faccb18165bd6fe31ae1cf318dc5b51eee0e1ba569b88cd74c1773b91fac106690201905092915050565b600080600b60009054906101000a90046001600160a01b03166001600160a01b031663741bef1a6040518163ffffffff1660e01b815260040160206040518083038186803b15801561307157600080fd5b60008080670de0b6b3a764000086156143c6576143c36131f48b89614fdb565b90505b60006143da82670de0b6b3a7640000614d04565b905060006143e88c8a614fdb565b905060006143f6848d61327d565b614400848b61327d565b61440a9190614fdb565b90506000614418858d61327d565b614422858b61327d565b6132649190614fdb565b6000600160ff1b8314806144435750600160ff1b82145b1561446157604051630d01a11b60e21b815260040160405180910390fd5b600080600085126144725784614477565b846000035b915060008412614487578361448c565b836000035b9050600061449a8383614290565b90506001600160ff1b038111156144c75760405163bf79e8d960e01b815260048101829052602401610b42565b6000198087139086138082186001146144e05782611fa3565b505060000395945050505050565b6000601854600014156145015750600090565b600d54600c54600091614520916001600160a01b039182169116613299565b90506000614535600183601854601954611c6c565b601854601954600f54604051635f16f8c960e11b815293945060009373__$eb86d565a3113b3c398b1080d0d395c3b4$__9363be2df19293614581938993899190600190600401614eb5565b60206040518083038186803b15801561459957600080fd5b505af41580156145ad573d6000803e3d6000fd5b505050506040513d601f19601f820116820180604052508101906145d19190614d31565b6015549091506145e1908261327d565b935050505090565b6000601654600014156145fc5750600090565b600d54600c5460009161461b916001600160a01b039182169116613299565b90506000614630600083601654601754611c6c565b601854601954600f54604051635f16f8c960e11b815293945060009373__$eb86d565a3113b3c398b1080d0d395c3b4$__9363be2df1929361467b9389938991908990600401614eb5565b60206040518083038186803b15801561469357600080fd5b505af41580156146a7573d6000803e3d6000fd5b505050506040513d601f19601f820116820180604052508101906146cb9190614d31565b905060006117808260145461327d90919063ffffffff16565b8260078101928215614712579160200282015b828111156147125782358255916020019190600101906146f7565b5061405e92915061473c565b6040518060e001604052806007906020820280368337509192915050565b5b8082111561405e576000815560010161473d565b6001600160a01b03811681146106da57600080fd5b6000806040838503121561477957600080fd5b82359150602083013561478b81614751565b809150509250929050565b6000602082840312156147a857600080fd5b81356001600160e01b03198116811461105c57600080fd5b80356001600160801b038116811461246e57600080fd5b6000602082840312156147e957600080fd5b61105c826147c0565b60005b8381101561480d5781810151838201526020016147f5565b83811115612a605750506000910152565b602081526000825180602084015261483d8160408501602087016147f2565b601f01601f19169190910160400192915050565b6000806040838503121561486457600080fd5b823561486f81614751565b946020939093013593505050565b60006020828403121561488f57600080fd5b5035919050565b6000602082840312156148a857600080fd5b813561105c81614751565b6000806000606084860312156148c857600080fd5b83356148d381614751565b925060208401356148e381614751565b929592945050506040919091013590565b634e487b7160e01b600052604160045260246000fd5b80151581146106da57600080fd5b600060c0828403121561492a57600080fd5b60405160c0810181811067ffffffffffffffff8211171561495b57634e487b7160e01b600052604160045260246000fd5b6040528235815290508060208301356149738161490a565b602082015260408381013590820152606083013561499081614751565b606082015260808301356149a381614751565b608082015260a08301356149b681614751565b60a0919091015292915050565b60008060e083850312156149d657600080fd5b6149e08484614918565b9460c0939093013593505050565b600060c08284031215614a0057600080fd5b61105c8383614918565b60008060008060008060c08789031215614a2357600080fd5b614a2c876147c0565b9550614a3a602088016147c0565b9450614a48604088016147c0565b9350614a56606088016147c0565b9250614a64608088016147c0565b9150614a7260a088016147c0565b90509295509295509295565b60008060008060808587031215614a9457600080fd5b8435614a9f8161490a565b966020860135965060408601359560600135945092505050565b6000806101008385031215614acd57600080fd5b60e0830184811115614ade57600080fd5b8392503561478b8161490a565b600060208284031215614afd57600080fd5b813561105c8161490a565b60e08101818360005b6007811015614b30578151835260209283019290910190600101614b11565b50505092915050565b60ff811681146106da57600080fd5b600080600080600080600060e0888a031215614b6357600080fd5b8735614b6e81614751565b96506020880135614b7e81614751565b955060408801359450606088013593506080880135614b9c81614b39565b9699959850939692959460a0840135945060c09093013592915050565b60008060e08385031215614bcc57600080fd5b614bd68484614918565b915060c083013561478b8161490a565b60008060408385031215614bf957600080fd5b8235614c0481614751565b9150602083013561478b81614751565b6000806000806101208587031215614c2b57600080fd5b614c358686614918565b935060c0850135925060e08501359150610100850135614c5481614751565b939692955090935050565b60008060408385031215614c7257600080fd5b50508035926020909101359150565b60008060008060008060c08789031215614c9a57600080fd5b505084359660208601359650604086013595606081013595506080810135945060a0013592509050565b60208082526010908201526f14185d5cd8589b194e881c185d5cd95960821b604082015260600190565b634e487b7160e01b600052601160045260246000fd5b600082821015614d1657614d16614cee565b500390565b634e487b7160e01b600052603260045260246000fd5b600060208284031215614d4357600080fd5b5051919050565b600060ff821660ff811415614d6157614d61614cee565b60010192915050565b6020808252818101527f4f776e61626c653a2063616c6c6572206973206e6f7420746865206f776e6572604082015260600190565b600181811c90821680614db357607f821691505b60208210811415613d7e57634e487b7160e01b600052602260045260246000fd5b600080821280156001600160ff1b0384900385131615614df657614df6614cee565b600160ff1b8390038412811615614e0f57614e0f614cee565b50500190565b6001600160a01b039687168152948616602086015260408501939093529015156060840152608083015290911660a082015260c00190565b600060208284031215614e5f57600080fd5b815161105c81614751565b600060208284031215614e7c57600080fd5b815161105c81614b39565b60008060408385031215614e9a57600080fd5b8251614ea58161490a565b6020939093015192949293505050565b9586526020860194909452604085019290925260608401526080830152151560a082015260c00190565b6000600160ff1b82141561301957613019614cee565b600060c08284031215614f0757600080fd5b60405160c0810181811067ffffffffffffffff82111715614f3857634e487b7160e01b600052604160045260246000fd5b604052825181526020830151614f4d8161490a565b6020820152604083810151908201526060830151614f6a81614751565b60608201526080830151614f7d81614751565b608082015260a0830151614f9081614751565b60a08201529392505050565b60008083128015600160ff1b850184121615614fba57614fba614cee565b6001600160ff1b0384018313811615614fd557614fd5614cee565b50500390565b60008219821115614fee57614fee614cee565b500190565b6000806040838503121561500657600080fd5b505080516020909101519092909150565b600081600019048311821515161561503157615031614cee565b500290565b634e487b7160e01b600052601260045260246000fd5b600181815b8085111561508757816000190482111561506d5761506d614cee565b8085161561507a57918102915b93841c9390800290615051565b509250929050565b60008261509e57506001610d7a565b816150ab57506000610d7a565b81600181146150c157600281146150cb576150e7565b6001915050610d7a565b60ff8411156150dc576150dc614cee565b50506001821b610d7a565b5060208310610133831016604e8410600b841016171561510a575081810a610d7a565b615114838361504c565b806000190482111561512857615128614cee565b029392505050565b600061105c838361508f565b60008261515957634e487b7160e01b600052601260045260246000fd5b500490565b7f416363657373436f6e74726f6c3a206163636f756e74200000000000000000008152600083516151968160178501602088016147f2565b7001034b99036b4b9b9b4b733903937b6329607d1b60179184019182015283516151c78160288401602088016147f2565b01602801949350505050565b600080835481600182811c9150808316806151ef57607f831692505b602080841082141561520f57634e487b7160e01b86526022600452602486fd5b818015615223576001811461523457615261565b60ff19861689528489019650615261565b60008a81526020902060005b868110156152595781548b820152908501908301615240565b505084890196505b509498975050505050505050565b60006020828403121561528157600080fd5b815161105c8161490a565b60008161529b5761529b614cee565b50600019019056feddf252ad1be2c89b69c2b068fc378daa952ba7f163c4a11628f55a4df523b3efa26469706673582212202a00b2623d8fec035fbf93f87ae6d4c4eaca628e5e06ad5920a961f2984cafa564736f6c63430008090033",
  "linkReferences": {
    "contracts/libraries/BlackScholes.sol": {
      "BlackScholes": [
        {
          "length": 20,
          "start": 8452
        },
        {
          "length": 20,
          "start": 8686
        },
        {
          "length": 20,
          "start": 8868
        },
        {
          "length": 20,
          "start": 12658
        },
        {
          "length": 20,
          "start": 20310
        },
        {
          "length": 20,
          "start": 20561
        }
      ]
    }
  },
  "deployedLinkReferences": {
    "contracts/libraries/BlackScholes.sol": {
      "BlackScholes": [
        {
          "length": 20,
          "start": 5889
        },
        {
          "length": 20,
          "start": 6123
        },
        {
          "length": 20,
          "start": 6305
        },
        {
          "length": 20,
          "start": 10095
        },
        {
          "length": 20,
          "start": 17747
        },
        {
          "length": 20,
          "start": 17998
        }
      ]
    }
  }
}