{
  "_format": "hh-sol-artifact-1",
  "contractName": "OptionRegistryV2",
  "sourceName": "contracts/OptionRegistryV2.sol",
  "abi": [
    {
      "inputs": [
        {
          "internalType": "address",
          "name": "_collateralAsset",
          "type": "address"
        },
        {
          "internalType": "address",
          "name": "_oTokenFactory",
          "type": "address"
        },
        {
          "internalType": "address",
          "name": "_gammaController",
          "type": "address"
        },
        {
          "internalType": "address",
          "name": "_marginPool",
          "type": "address"
        },
        {
          "internalType": "address",
          "name": "_liquidityPool",
          "type": "address"
        },
        {
          "internalType": "address",
          "name": "_addressBook",
          "type": "address"
        }
      ],
      "stateMutability": "nonpayable",
      "type": "constructor"
    },
    {
      "inputs": [
        {
          "internalType": "uint256",
          "name": "decimals",
          "type": "uint256"
        }
      ],
      "name": "DecimalIsLargerThanScale",
      "type": "error"
    },
    {
      "anonymous": false,
      "inputs": [
        {
          "indexed": false,
          "internalType": "address",
          "name": "token",
          "type": "address"
        }
      ],
      "name": "OptionTokenCreated",
      "type": "event"
    },
    {
      "anonymous": false,
      "inputs": [
        {
          "indexed": true,
          "internalType": "address",
          "name": "series",
          "type": "address"
        },
        {
          "indexed": false,
          "internalType": "uint256",
          "name": "vaultId",
          "type": "uint256"
        },
        {
          "indexed": false,
          "internalType": "uint256",
          "name": "closedAmount",
          "type": "uint256"
        }
      ],
      "name": "OptionsContractClosed",
      "type": "event"
    },
    {
      "anonymous": false,
      "inputs": [
        {
          "indexed": true,
          "internalType": "address",
          "name": "series",
          "type": "address"
        },
        {
          "indexed": false,
          "internalType": "uint256",
          "name": "vaultId",
          "type": "uint256"
        },
        {
          "indexed": false,
          "internalType": "uint256",
          "name": "optionsAmount",
          "type": "uint256"
        }
      ],
      "name": "OptionsContractOpened",
      "type": "event"
    },
    {
      "anonymous": false,
      "inputs": [
        {
          "indexed": true,
          "internalType": "address",
          "name": "series",
          "type": "address"
        }
      ],
      "name": "OptionsContractSettled",
      "type": "event"
    },
    {
      "anonymous": false,
      "inputs": [
        {
          "indexed": true,
          "internalType": "address",
          "name": "previousOwner",
          "type": "address"
        },
        {
          "indexed": true,
          "internalType": "address",
          "name": "newOwner",
          "type": "address"
        }
      ],
      "name": "OwnershipTransferred",
      "type": "event"
    },
    {
      "anonymous": false,
      "inputs": [
        {
          "indexed": false,
          "internalType": "address",
          "name": "series",
          "type": "address"
        },
        {
          "indexed": false,
          "internalType": "uint256",
          "name": "underlyingAmount",
          "type": "uint256"
        },
        {
          "indexed": false,
          "internalType": "uint256",
          "name": "strikeAmount",
          "type": "uint256"
        }
      ],
      "name": "SeriesRedeemed",
      "type": "event"
    },
    {
      "inputs": [],
      "name": "VERSION",
      "outputs": [
        {
          "internalType": "string",
          "name": "",
          "type": "string"
        }
      ],
      "stateMutability": "view",
      "type": "function"
    },
    {
      "inputs": [
        {
          "internalType": "uint256",
          "name": "vaultId",
          "type": "uint256"
        }
      ],
      "name": "adjustCollateral",
      "outputs": [],
      "stateMutability": "nonpayable",
      "type": "function"
    },
    {
      "inputs": [
        {
          "internalType": "uint256",
          "name": "vaultId",
          "type": "uint256"
        }
      ],
      "name": "adjustCollateralCaller",
      "outputs": [],
      "stateMutability": "nonpayable",
      "type": "function"
    },
    {
      "inputs": [],
      "name": "authorised",
      "outputs": [
        {
          "internalType": "address",
          "name": "",
          "type": "address"
        }
      ],
      "stateMutability": "view",
      "type": "function"
    },
    {
      "inputs": [],
      "name": "callLowerHealthFactor",
      "outputs": [
        {
          "internalType": "uint64",
          "name": "",
          "type": "uint64"
        }
      ],
      "stateMutability": "view",
      "type": "function"
    },
    {
      "inputs": [],
      "name": "callUpperHealthFactor",
      "outputs": [
        {
          "internalType": "uint64",
          "name": "",
          "type": "uint64"
        }
      ],
      "stateMutability": "view",
      "type": "function"
    },
    {
      "inputs": [
        {
          "internalType": "uint256",
          "name": "vaultId",
          "type": "uint256"
        }
      ],
      "name": "checkVaultHealth",
      "outputs": [
        {
          "internalType": "bool",
          "name": "isBelowMin",
          "type": "bool"
        },
        {
          "internalType": "bool",
          "name": "isAboveMax",
          "type": "bool"
        },
        {
          "internalType": "uint256",
          "name": "healthFactor",
          "type": "uint256"
        },
        {
          "internalType": "uint256",
          "name": "collatRequired",
          "type": "uint256"
        },
        {
          "internalType": "address",
          "name": "collatAsset",
          "type": "address"
        }
      ],
      "stateMutability": "view",
      "type": "function"
    },
    {
      "inputs": [
        {
          "internalType": "address",
          "name": "_series",
          "type": "address"
        },
        {
          "internalType": "uint256",
          "name": "amount",
          "type": "uint256"
        }
      ],
      "name": "close",
      "outputs": [
        {
          "internalType": "bool",
          "name": "",
          "type": "bool"
        },
        {
          "internalType": "uint256",
          "name": "",
          "type": "uint256"
        }
      ],
      "stateMutability": "nonpayable",
      "type": "function"
    },
    {
      "inputs": [],
      "name": "collateralAsset",
      "outputs": [
        {
          "internalType": "address",
          "name": "",
          "type": "address"
        }
      ],
      "stateMutability": "view",
      "type": "function"
    },
    {
      "inputs": [
        {
          "components": [
            {
              "internalType": "uint256",
              "name": "expiration",
              "type": "uint256"
            },
            {
              "internalType": "bool",
              "name": "isPut",
              "type": "bool"
            },
            {
              "internalType": "uint256",
              "name": "strike",
              "type": "uint256"
            },
            {
              "internalType": "address",
              "name": "underlying",
              "type": "address"
            },
            {
              "internalType": "address",
              "name": "strikeAsset",
              "type": "address"
            },
            {
              "internalType": "address",
              "name": "collateral",
              "type": "address"
            }
          ],
          "internalType": "struct Types.OptionSeries",
          "name": "series",
          "type": "tuple"
        },
        {
          "internalType": "uint256",
          "name": "amount",
          "type": "uint256"
        }
      ],
      "name": "getCollateral",
      "outputs": [
        {
          "internalType": "uint256",
          "name": "",
          "type": "uint256"
        }
      ],
      "stateMutability": "view",
      "type": "function"
    },
    {
      "inputs": [
        {
          "components": [
            {
              "internalType": "uint256",
              "name": "expiration",
              "type": "uint256"
            },
            {
              "internalType": "bool",
              "name": "isPut",
              "type": "bool"
            },
            {
              "internalType": "uint256",
              "name": "strike",
              "type": "uint256"
            },
            {
              "internalType": "address",
              "name": "underlying",
              "type": "address"
            },
            {
              "internalType": "address",
              "name": "strikeAsset",
              "type": "address"
            },
            {
              "internalType": "address",
              "name": "collateral",
              "type": "address"
            }
          ],
          "internalType": "struct Types.OptionSeries",
          "name": "_series",
          "type": "tuple"
        }
      ],
      "name": "getIssuanceHash",
      "outputs": [
        {
          "internalType": "bytes32",
          "name": "",
          "type": "bytes32"
        }
      ],
      "stateMutability": "pure",
      "type": "function"
    },
    {
      "inputs": [
        {
          "internalType": "address",
          "name": "underlying",
          "type": "address"
        },
        {
          "internalType": "address",
          "name": "strikeAsset",
          "type": "address"
        },
        {
          "internalType": "uint256",
          "name": "expiration",
          "type": "uint256"
        },
        {
          "internalType": "bool",
          "name": "isPut",
          "type": "bool"
        },
        {
          "internalType": "uint256",
          "name": "strike",
          "type": "uint256"
        },
        {
          "internalType": "address",
          "name": "collateral",
          "type": "address"
        }
      ],
      "name": "getOtoken",
      "outputs": [
        {
          "internalType": "address",
          "name": "",
          "type": "address"
        }
      ],
      "stateMutability": "nonpayable",
      "type": "function"
    },
    {
      "inputs": [
        {
          "internalType": "bytes32",
          "name": "issuanceHash",
          "type": "bytes32"
        }
      ],
      "name": "getSeriesAddress",
      "outputs": [
        {
          "internalType": "address",
          "name": "",
          "type": "address"
        }
      ],
      "stateMutability": "view",
      "type": "function"
    },
    {
      "inputs": [
        {
          "internalType": "address",
          "name": "series",
          "type": "address"
        }
      ],
      "name": "getSeriesInfo",
      "outputs": [
        {
          "components": [
            {
              "internalType": "uint256",
              "name": "expiration",
              "type": "uint256"
            },
            {
              "internalType": "bool",
              "name": "isPut",
              "type": "bool"
            },
            {
              "internalType": "uint256",
              "name": "strike",
              "type": "uint256"
            },
            {
              "internalType": "address",
              "name": "underlying",
              "type": "address"
            },
            {
              "internalType": "address",
              "name": "strikeAsset",
              "type": "address"
            },
            {
              "internalType": "address",
              "name": "collateral",
              "type": "address"
            }
          ],
          "internalType": "struct Types.OptionSeries",
          "name": "",
          "type": "tuple"
        }
      ],
      "stateMutability": "view",
      "type": "function"
    },
    {
      "inputs": [
        {
          "internalType": "address",
          "name": "underlying",
          "type": "address"
        },
        {
          "internalType": "address",
          "name": "strikeAsset",
          "type": "address"
        },
        {
          "internalType": "uint256",
          "name": "expiration",
          "type": "uint256"
        },
        {
          "internalType": "bool",
          "name": "isPut",
          "type": "bool"
        },
        {
          "internalType": "uint256",
          "name": "strike",
          "type": "uint256"
        },
        {
          "internalType": "address",
          "name": "collateral",
          "type": "address"
        }
      ],
      "name": "issue",
      "outputs": [
        {
          "internalType": "address",
          "name": "",
          "type": "address"
        }
      ],
      "stateMutability": "nonpayable",
      "type": "function"
    },
    {
      "inputs": [
        {
          "internalType": "address",
          "name": "_series",
          "type": "address"
        },
        {
          "internalType": "uint256",
          "name": "amount",
          "type": "uint256"
        },
        {
          "internalType": "uint256",
          "name": "collateralAmount",
          "type": "uint256"
        }
      ],
      "name": "open",
      "outputs": [
        {
          "internalType": "bool",
          "name": "",
          "type": "bool"
        },
        {
          "internalType": "uint256",
          "name": "",
          "type": "uint256"
        }
      ],
      "stateMutability": "nonpayable",
      "type": "function"
    },
    {
      "inputs": [],
      "name": "owner",
      "outputs": [
        {
          "internalType": "address",
          "name": "",
          "type": "address"
        }
      ],
      "stateMutability": "view",
      "type": "function"
    },
    {
      "inputs": [],
      "name": "putLowerHealthFactor",
      "outputs": [
        {
          "internalType": "uint64",
          "name": "",
          "type": "uint64"
        }
      ],
      "stateMutability": "view",
      "type": "function"
    },
    {
      "inputs": [],
      "name": "putUpperHealthFactor",
      "outputs": [
        {
          "internalType": "uint64",
          "name": "",
          "type": "uint64"
        }
      ],
      "stateMutability": "view",
      "type": "function"
    },
    {
      "inputs": [
        {
          "internalType": "address",
          "name": "_series",
          "type": "address"
        }
      ],
      "name": "redeem",
      "outputs": [
        {
          "internalType": "uint256",
          "name": "",
          "type": "uint256"
        }
      ],
      "stateMutability": "nonpayable",
      "type": "function"
    },
    {
      "inputs": [],
      "name": "renounceOwnership",
      "outputs": [],
      "stateMutability": "nonpayable",
      "type": "function"
    },
    {
      "inputs": [
        {
          "internalType": "address",
          "name": "",
          "type": "address"
        }
      ],
      "name": "seriesInfo",
      "outputs": [
        {
          "internalType": "uint256",
          "name": "expiration",
          "type": "uint256"
        },
        {
          "internalType": "bool",
          "name": "isPut",
          "type": "bool"
        },
        {
          "internalType": "uint256",
          "name": "strike",
          "type": "uint256"
        },
        {
          "internalType": "address",
          "name": "underlying",
          "type": "address"
        },
        {
          "internalType": "address",
          "name": "strikeAsset",
          "type": "address"
        },
        {
          "internalType": "address",
          "name": "collateral",
          "type": "address"
        }
      ],
      "stateMutability": "view",
      "type": "function"
    },
    {
      "inputs": [
        {
          "internalType": "address",
          "name": "_newAuthorised",
          "type": "address"
        }
      ],
      "name": "setAuthorised",
      "outputs": [],
      "stateMutability": "nonpayable",
      "type": "function"
    },
    {
      "inputs": [
        {
          "internalType": "uint64",
          "name": "_putLower",
          "type": "uint64"
        },
        {
          "internalType": "uint64",
          "name": "_putUpper",
          "type": "uint64"
        },
        {
          "internalType": "uint64",
          "name": "_callLower",
          "type": "uint64"
        },
        {
          "internalType": "uint64",
          "name": "_callUpper",
          "type": "uint64"
        }
      ],
      "name": "setHealthThresholds",
      "outputs": [],
      "stateMutability": "nonpayable",
      "type": "function"
    },
    {
      "inputs": [
        {
          "internalType": "address",
          "name": "_newLiquidityPool",
          "type": "address"
        }
      ],
      "name": "setLiquidityPool",
      "outputs": [],
      "stateMutability": "nonpayable",
      "type": "function"
    },
    {
      "inputs": [
        {
          "internalType": "address",
          "name": "_series",
          "type": "address"
        }
      ],
      "name": "settle",
      "outputs": [
        {
          "internalType": "bool",
          "name": "",
          "type": "bool"
        }
      ],
      "stateMutability": "nonpayable",
      "type": "function"
    },
    {
      "inputs": [
        {
          "internalType": "address",
          "name": "newOwner",
          "type": "address"
        }
      ],
      "name": "transferOwnership",
      "outputs": [],
      "stateMutability": "nonpayable",
      "type": "function"
    },
    {
      "inputs": [],
      "name": "vaultCount",
      "outputs": [
        {
          "internalType": "uint64",
          "name": "",
          "type": "uint64"
        }
      ],
      "stateMutability": "view",
      "type": "function"
    },
    {
      "inputs": [
        {
          "internalType": "address",
          "name": "",
          "type": "address"
        }
      ],
      "name": "vaultIds",
      "outputs": [
        {
          "internalType": "uint256",
          "name": "",
          "type": "uint256"
        }
      ],
      "stateMutability": "view",
      "type": "function"
    },
    {
      "inputs": [
        {
          "internalType": "uint256",
          "name": "vaultId",
          "type": "uint256"
        }
      ],
      "name": "wCollatLiquidatedVault",
      "outputs": [],
      "stateMutability": "nonpayable",
      "type": "function"
    }
  ],
  "bytecode": "0x60c060405260088054792ee00000000000002af800000000000032c800000000000000006001600160401b03909116179055600980546001600160401b031916612af8179055612710600a553480156200005857600080fd5b5060405162003502380380620035028339810160408190526200007b9162000152565b6200008633620000e5565b6001600160a01b03958616608052600180549587166001600160a01b0319968716179055600280549487169486169490941790935560038054928616928516929092179091556004805491851691909316179091551660a052620001d3565b600080546001600160a01b038381166001600160a01b0319831681178455604051919092169283917f8be0079c531659141344cd1fd0a4f28419497f9722a3daafe3b4186f6b6457e09190a35050565b80516001600160a01b03811681146200014d57600080fd5b919050565b60008060008060008060c087890312156200016c57600080fd5b620001778762000135565b9550620001876020880162000135565b9450620001976040880162000135565b9350620001a76060880162000135565b9250620001b76080880162000135565b9150620001c760a0880162000135565b90509295509295509295565b60805160a0516132f46200020e600039600081816106e2015281816107ab01528181611b5d0152611c20015260006103d401526132f46000f3fe608060405234801561001057600080fd5b50600436106101da5760003560e01c80639b8c8dc211610104578063c84feaca116100a2578063e49280cb11610071578063e49280cb14610620578063e6b9147e14610633578063f2fde38b14610646578063ffa1ad741461065957600080fd5b8063c84feaca146104c3578063dac9675b146104dd578063dfeddb7e146105e4578063e341c12c1461060d57600080fd5b8063b0b96a35116100de578063b0b96a35146103f6578063b10efd7f14610409578063b9f4b28e1461041c578063c7bc163b1461042f57600080fd5b80639b8c8dc214610376578063a7c6a100146103bc578063aabaecd6146103cf57600080fd5b806363009ac31161017c57806389f928711161014b57806389f92871146103255780638da5cb5b1461033f57806395a2251f146103505780639a253faa1461036357600080fd5b806363009ac3146102bd5780636a256b29146102d0578063715018a6146102f357806389a86ad3146102fb57600080fd5b8063210fc56a116101b8578063210fc56a1461024c57806332c926cb1461027757806341849afc1461028a5780634c9a1c61146102aa57600080fd5b806301877020146101df5780630b047137146101f4578063164e6ea91461021a575b600080fd5b6101f26101ed366004612a4f565b610688565b005b610207610202366004612b70565b6106dd565b6040519081526020015b60405180910390f35b60085461023490600160401b90046001600160401b031681565b6040516001600160401b039091168152602001610211565b61025f61025a366004612b9b565b610a14565b6040516001600160a01b039091168152602001610211565b6101f2610285366004612c20565b610b3a565b610207610298366004612a4f565b60066020526000908152604090205481565b6101f26102b8366004612c74565b610be8565b6101f26102cb366004612c74565b610f2d565b6102e36102de366004612a4f565b61111d565b6040519015158152602001610211565b6101f261131a565b61030e610309366004612c8d565b611350565b604080519215158352602083019190915201610211565b60085461023490600160801b90046001600160401b031681565b6000546001600160a01b031661025f565b61020761035e366004612a4f565b611685565b610207610371366004612cc2565b6119fb565b610389610384366004612c74565b611a23565b60408051951515865293151560208601529284019190915260608301526001600160a01b0316608082015260a001610211565b600854610234906001600160401b031681565b61025f7f000000000000000000000000000000000000000000000000000000000000000081565b600954610234906001600160401b031681565b61025f610417366004612b9b565b611f5a565b6101f261042a366004612a4f565b61224c565b61048761043d366004612a4f565b6005602081905260009182526040909120805460018201546002830154600384015460048501549490950154929460ff9092169390926001600160a01b0392831692918216911686565b604080519687529415156020870152938501929092526001600160a01b03908116606085015290811660808401521660a082015260c001610211565b60085461023490600160c01b90046001600160401b031681565b61058a6104eb366004612a4f565b6040805160c081018252600080825260208201819052918101829052606081018290526080810182905260a0810191909152506001600160a01b03908116600090815260056020818152604092839020835160c08101855281548152600182015460ff1615159281019290925260028101549382019390935260038301548416606082015260048301548416608082015291015490911660a082015290565b604051610211919081518152602080830151151590820152604080830151908201526060808301516001600160a01b039081169183019190915260808084015182169083015260a092830151169181019190915260c00190565b61025f6105f2366004612c74565b6000908152600760205260409020546001600160a01b031690565b6101f261061b366004612c74565b612298565b61030e61062e366004612cde565b6123cf565b600b5461025f906001600160a01b031681565b6101f2610654366004612a4f565b612656565b61067b604051806040016040528060038152602001620312e360ec1b81525081565b6040516102119190612d0a565b6000546001600160a01b031633146106bb5760405162461bcd60e51b81526004016106b290612d5f565b60405180910390fd5b600480546001600160a01b0319166001600160a01b0392909216919091179055565b6000807f00000000000000000000000000000000000000000000000000000000000000006001600160a01b031663cf28493f6040518163ffffffff1660e01b815260040160206040518083038186803b15801561073957600080fd5b505afa15801561074d573d6000803e3d6000fd5b505050506040513d601f19601f820116820180604052508101906107719190612d94565b90506000816001600160a01b0316630b0509fb866060015187608001518860a001516402540be400896107a49190612dc7565b8a604001517f00000000000000000000000000000000000000000000000000000000000000006001600160a01b031663833b1fce6040518163ffffffff1660e01b815260040160206040518083038186803b15801561080257600080fd5b505afa158015610816573d6000803e3d6000fd5b505050506040513d601f19601f8201168201806040525081019061083a9190612d94565b60608d01516040516341976e0960e01b81526001600160a01b0391821660048201529116906341976e099060240160206040518083038186803b15801561088057600080fd5b505afa158015610894573d6000803e3d6000fd5b505050506040513d601f19601f820116820180604052508101906108b89190612de9565b8c600001518d60a001516001600160a01b031663313ce5676040518163ffffffff1660e01b815260040160206040518083038186803b1580156108fa57600080fd5b505afa15801561090e573d6000803e3d6000fd5b505050506040513d601f19601f820116820180604052508101906109329190612e02565b8e602001516040518a63ffffffff1660e01b815260040161095b99989796959493929190612e25565b60206040518083038186803b15801561097357600080fd5b505afa158015610987573d6000803e3d6000fd5b505050506040513d601f19601f820116820180604052508101906109ab9190612de9565b9050600085602001516109d057600854600160401b90046001600160401b03166109e4565b600854600160c01b90046001600160401b03165b6001600160401b03169050600a5481836109fe9190612e77565b610a089190612dc7565b93505050505b92915050565b6004546000906001600160a01b03163314610a415760405162461bcd60e51b81526004016106b290612e96565b428511610a825760405162461bcd60e51b815260206004820152600f60248201526e105b1c9958591e48195e1c1a5c9959608a1b60448201526064016106b2565b60015460009073__$b23fc5bca06f28413fdcaeb2fc753ee484$__9063f7b98e1b906001600160a01b0316858b8b610aba8a846126f1565b8c8c6040518863ffffffff1660e01b8152600401610ade9796959493929190612ebe565b60206040518083038186803b158015610af657600080fd5b505af4158015610b0a573d6000803e3d6000fd5b505050506040513d601f19601f82011682018060405250810190610b2e9190612d94565b98975050505050505050565b6000546001600160a01b03163314610b645760405162461bcd60e51b81526004016106b290612d5f565b600980546001600160401b0395861667ffffffffffffffff1990911617905560088054918516600160401b026fffffffffffffffff000000000000000019938616600160801b0267ffffffffffffffff60801b1995909616600160c01b02949094166fffffffffffffffffffffffffffffffff909216919091179390931716179055565b6000546001600160a01b0316331480610c0b5750600b546001600160a01b031633145b610c275760405162461bcd60e51b81526004016106b290612f02565b60025460405163d99d13f560e01b8152306004820152602481018390526000916001600160a01b03169063d99d13f59060440160006040518083038186803b158015610c7257600080fd5b505afa158015610c86573d6000803e3d6000fd5b505050506040513d6000823e601f3d908101601f19168201604052610cae9190810190613019565b90508060600151600081518110610cc757610cc7613139565b6020026020010151600014610d295760405162461bcd60e51b815260206004820152602260248201527f5661756c74206861732073686f727420706f736974696f6e73205b616d6f756e604482015261745d60f01b60648201526084016106b2565b80518051600091908290610d3f57610d3f613139565b60200260200101516001600160a01b031614610da75760405162461bcd60e51b815260206004820152602160248201527f5661756c74206861732073686f727420706f736974696f6e73205b746f6b656e6044820152605d60f81b60648201526084016106b2565b60008160a00151600081518110610dc057610dc0613139565b602002602001015111610e155760405162461bcd60e51b815260206004820152601760248201527f5661756c7420686173206e6f20636f6c6c61746572616c00000000000000000060448201526064016106b2565b6002546040820151805173__$b23fc5bca06f28413fdcaeb2fc753ee484$__9263fd5b6dd5926001600160a01b0390911691600090610e5657610e56613139565b60200260200101518460a00151600081518110610e7557610e75613139565b6020026020010151866040518563ffffffff1660e01b8152600401610e9d949392919061314f565b60006040518083038186803b158015610eb557600080fd5b505af4158015610ec9573d6000803e3d6000fd5b50505050610f298160400151600081518110610ee757610ee7613139565b6020026020010151600460009054906101000a90046001600160a01b03168360a00151600081518110610f1c57610f1c613139565b60200260200101516127c6565b5050565b6000546001600160a01b0316331480610f505750600b546001600160a01b031633145b610f6c5760405162461bcd60e51b81526004016106b290612f02565b600080600080610f7b85611a23565b9450945050935093508380610f8d5750825b610fcc5760405162461bcd60e51b815260206004820152601060248201526f7661756c74206973206865616c74687960801b60448201526064016106b2565b831561108057600454610feb9082906001600160a01b03163085612845565b6002546003546040516347e200ad60e11b81526001600160a01b03928316600482015290821660248201529082166044820152606481018390526084810186905273__$b23fc5bca06f28413fdcaeb2fc753ee484$__90638fc4015a9060a40160006040518083038186803b15801561106357600080fd5b505af4158015611077573d6000803e3d6000fd5b50505050611116565b82156111165760025460405163fd5b6dd560e01b815273__$b23fc5bca06f28413fdcaeb2fc753ee484$__9163fd5b6dd5916110ce916001600160a01b031690859087908b9060040161314f565b60006040518083038186803b1580156110e657600080fd5b505af41580156110fa573d6000803e3d6000fd5b505060045461111692508391506001600160a01b0316846127c6565b5050505050565b6001600160a01b038082166000908152600560208181526040808420815160c0810183528154808252600183015460ff161515948201949094526002820154928101929092526003810154861660608301526004810154861660808301529092015490931660a082015290916111cb5760405162461bcd60e51b81526020600482015260136024820152726e6f6e2d6578697374656e742073657269657360681b60448201526064016106b2565b805142116112145760405162461bcd60e51b81526020600482015260166024820152756f7074696f6e206e6f7420706173742065787069727960501b60448201526064016106b2565b6001600160a01b038381166000908152600660205260408082205460025491516315afd40960e01b81529190931660048201526024810183905273__$b23fc5bca06f28413fdcaeb2fc753ee484$__906315afd4099060440160206040518083038186803b15801561128557600080fd5b505af4158015611299573d6000803e3d6000fd5b505050506040513d601f19601f820116820180604052508101906112bd9190612de9565b60a08401516004549192506112db916001600160a01b0316836127c6565b6040516001600160a01b038616907ff793e1d244354885fc25bda2ff29d75466d8777257b31f0cc2ea3a597df8fcca90600090a2506001949350505050565b6000546001600160a01b031633146113445760405162461bcd60e51b81526004016106b290612d5f565b61134e60006128df565b565b60045460009081906001600160a01b0316331461137f5760405162461bcd60e51b81526004016106b290612e96565b6001600160a01b03808616600090815260056020818152604092839020835160c0810185528154808252600183015460ff161515938201939093526002820154948101949094526003810154851660608501526004810154851660808501529091015490921660a082015290421061144c5760405162461bcd60e51b815260206004820152602a60248201527f4f7074696f6e732063616e206e6f74206265206f70656e65642061667465722060448201526932bc3834b930ba34b7b760b11b60648201526084016106b2565b61145c8160a00151333087612845565b6002546001600160a01b038781166000908152600660205260409020549116908061154757604051636553690d60e11b81523060048201526001600160a01b0383169063caa6d21a9060240160206040518083038186803b1580156114c057600080fd5b505afa1580156114d4573d6000803e3d6000fd5b505050506040513d601f19601f820116820180604052508101906114f89190612de9565b611503906001613178565b600880549192506001600160401b0390911690600061152183613190565b91906101000a8154816001600160401b0302191690836001600160401b03160217905550505b600254600354604051633718f97560e01b81526001600160a01b03928316600482015290821660248201529089166044820152606481018790526084810182905260a48101889052600160c482015260009073__$b23fc5bca06f28413fdcaeb2fc753ee484$__90633718f9759060e40160206040518083038186803b1580156115d057600080fd5b505af41580156115e4573d6000803e3d6000fd5b505050506040513d601f19601f820116820180604052508101906116089190612de9565b60408051848152602081018390529192506001600160a01b038b16917f242b1ddd06a984a28045d1a261fcddca274c5f29be7c894def55d7b938d4c7ce910160405180910390a261165a8933836127c6565b506001600160a01b038816600090815260066020526040902055506001925083915050935093915050565b6001600160a01b038082166000908152600560208181526040808420815160c0810183528154808252600183015460ff161515948201949094526002820154928101929092526003810154861660608301526004810154861660808301529092015490931660a082015290916117335760405162461bcd60e51b81526020600482015260136024820152726e6f6e2d6578697374656e742073657269657360681b60448201526064016106b2565b8051421161177c5760405162461bcd60e51b81526020600482015260166024820152756f7074696f6e206e6f7420706173742065787069727960501b60448201526064016106b2565b6040516370a0823160e01b81523360048201526000906001600160a01b038516906370a082319060240160206040518083038186803b1580156117be57600080fd5b505afa1580156117d2573d6000803e3d6000fd5b505050506040513d601f19601f820116820180604052508101906117f69190612de9565b116118435760405162461bcd60e51b815260206004820152601a60248201527f696e73756666696369656e74206f7074696f6e20746f6b656e7300000000000060448201526064016106b2565b6040516370a0823160e01b81523360048201526000906001600160a01b038516906370a082319060240160206040518083038186803b15801561188557600080fd5b505afa158015611899573d6000803e3d6000fd5b505050506040513d601f19601f820116820180604052508101906118bd9190612de9565b6040516370a0823160e01b8152336004820181905291925061194691869130906001600160a01b038416906370a082319060240160206040518083038186803b15801561190957600080fd5b505afa15801561191d573d6000803e3d6000fd5b505050506040513d601f19601f820116820180604052508101906119419190612de9565b612845565b6002546003546040516302e80dad60e61b81526001600160a01b039283166004820152908216602482015290851660448201526064810182905260009073__$b23fc5bca06f28413fdcaeb2fc753ee484$__9063ba036b409060840160206040518083038186803b1580156119ba57600080fd5b505af41580156119ce573d6000803e3d6000fd5b505050506040513d601f19601f820116820180604052508101906119f29190612de9565b95945050505050565b6000610a0e826060015183608001518460a0015185600001518660200151876040015161292f565b60025460405163d99d13f560e01b815230600482015260248101839052600091829182918291829182916001600160a01b039091169063d99d13f59060440160006040518083038186803b158015611a7a57600080fd5b505afa158015611a8e573d6000803e3d6000fd5b505050506040513d6000823e601f3d908101601f19168201604052611ab69190810190613019565b90506000600560008360000151600081518110611ad557611ad5613139565b6020908102919091018101516001600160a01b0390811683528282019390935260409182016000908120835160c08101855281548152600182015460ff1615158185015260028201548186015260038201548616606082015260048083015487166080830152600590920154861660a0820152845163cf28493f60e01b8152945190965091947f0000000000000000000000000000000000000000000000000000000000000000169363cf28493f938183019390929091829003018186803b158015611ba057600080fd5b505afa158015611bb4573d6000803e3d6000fd5b505050506040513d601f19601f82011682018060405250810190611bd89190612d94565b90506000816001600160a01b0316630b0509fb846060015185608001518660a001518860600151600081518110611c1157611c11613139565b602002602001015188604001517f00000000000000000000000000000000000000000000000000000000000000006001600160a01b031663833b1fce6040518163ffffffff1660e01b815260040160206040518083038186803b158015611c7757600080fd5b505afa158015611c8b573d6000803e3d6000fd5b505050506040513d601f19601f82011682018060405250810190611caf9190612d94565b60608b01516040516341976e0960e01b81526001600160a01b0391821660048201529116906341976e099060240160206040518083038186803b158015611cf557600080fd5b505afa158015611d09573d6000803e3d6000fd5b505050506040513d601f19601f82011682018060405250810190611d2d9190612de9565b8a600001518b60a001516001600160a01b031663313ce5676040518163ffffffff1660e01b815260040160206040518083038186803b158015611d6f57600080fd5b505afa158015611d83573d6000803e3d6000fd5b505050506040513d601f19601f82011682018060405250810190611da79190612e02565b8c602001516040518a63ffffffff1660e01b8152600401611dd099989796959493929190612e25565b60206040518083038186803b158015611de857600080fd5b505afa158015611dfc573d6000803e3d6000fd5b505050506040513d601f19601f82011682018060405250810190611e209190612de9565b905060008460a00151600081518110611e3b57611e3b613139565b6020026020010151905081600a5482611e549190612e77565b611e5e9190612dc7565b975060008460200151611e8357600854600160401b90046001600160401b0316611e97565b600854600160c01b90046001600160401b03165b6001600160401b0316905060008560200151611ec557600854600160801b90046001600160401b0316611ed2565b6009546001600160401b03165b6001600160401b03169050818a1115611f1157600a5460019b50611ef68386612e77565b611f009190612dc7565b611f0a90846131b7565b9850611f43565b808a1015611f4357600a5460019c508390611f2c8487612e77565b611f369190612dc7565b611f4091906131b7565b98505b8560a0015197505050505050505091939590929450565b6004546000906001600160a01b03163314611f875760405162461bcd60e51b81526004016106b290612e96565b428511611fc85760405162461bcd60e51b815260206004820152600f60248201526e105b1c9958591e48195e1c1a5c9959608a1b60448201526064016106b2565b6000611fd484846126f1565b90506000611fe68989868a8a8761292f565b9050600073__$b23fc5bca06f28413fdcaeb2fc753ee484$__630e4e99e3600160009054906101000a90046001600160a01b0316878d8d888e8e6040518863ffffffff1660e01b81526004016120429796959493929190612ebe565b60206040518083038186803b15801561205a57600080fd5b505af415801561206e573d6000803e3d6000fd5b505050506040513d601f19601f820116820180604052508101906120929190612d94565b90506040518060c0016040528089815260200188151581526020018481526020018b6001600160a01b031681526020018a6001600160a01b03168152602001866001600160a01b031681525060056000836001600160a01b03166001600160a01b031681526020019081526020016000206000820151816000015560208201518160010160006101000a81548160ff0219169083151502179055506040820151816002015560608201518160030160006101000a8154816001600160a01b0302191690836001600160a01b0316021790555060808201518160040160006101000a8154816001600160a01b0302191690836001600160a01b0316021790555060a08201518160050160006101000a8154816001600160a01b0302191690836001600160a01b03160217905550905050806007600084815260200190815260200160002060006101000a8154816001600160a01b0302191690836001600160a01b031602179055507ff434a81a703b3b06f1dd290881e157c47d663389196c88db9f57819ec6f6ae9f8160405161223791906001600160a01b0391909116815260200190565b60405180910390a19998505050505050505050565b6000546001600160a01b031633146122765760405162461bcd60e51b81526004016106b290612d5f565b600b80546001600160a01b0319166001600160a01b0392909216919091179055565b6000546001600160a01b03163314806122bb5750600b546001600160a01b031633145b6122d75760405162461bcd60e51b81526004016106b290612f02565b60008060006122e584611a23565b94509450505092508261232d5760405162461bcd60e51b815260206004820152601060248201526f7661756c74206973206865616c74687960801b60448201526064016106b2565b61233981333085612845565b6002546003546040516347e200ad60e11b81526001600160a01b03928316600482015290821660248201529082166044820152606481018390526084810185905273__$b23fc5bca06f28413fdcaeb2fc753ee484$__90638fc4015a9060a40160006040518083038186803b1580156123b157600080fd5b505af41580156123c5573d6000803e3d6000fd5b5050505050505050565b60045460009081906001600160a01b031633146123fe5760405162461bcd60e51b81526004016106b290612e96565b6001600160a01b03808516600090815260056020818152604092839020835160c0810185528154808252600183015460ff161515938201939093526002820154948101949094526003810154851660608501526004810154851660808501529091015490921660a08201529042106124b15760405162461bcd60e51b815260206004820152601660248201527513dc1d1a5bdb88185b1c9958591e48195e1c1a5c995960521b60448201526064016106b2565b6001600160a01b038516600081815260066020908152604080832054815163313ce56760e01b815291519094612547938a93919263313ce567926004808201939291829003018186803b15801561250757600080fd5b505afa15801561251b573d6000803e3d6000fd5b505050506040513d601f19601f8201168201806040525081019061253f9190612e02565b60ff166129a0565b905061255587333084612845565b600254604051633f83640160e21b815260009173__$b23fc5bca06f28413fdcaeb2fc753ee484$__9163fe0d9004916125a2916001600160a01b03909116908c908790899060040161314f565b60206040518083038186803b1580156125ba57600080fd5b505af41580156125ce573d6000803e3d6000fd5b505050506040513d601f19601f820116820180604052508101906125f29190612de9565b90506126038460a0015133836127c6565b60408051848152602081018990526001600160a01b038a16917f8b307ec2cdec0ea71518d1d82e315a365c5789f3e02e4466b9d886b3474b1793910160405180910390a260019890975095505050505050565b6000546001600160a01b031633146126805760405162461bcd60e51b81526004016106b290612d5f565b6001600160a01b0381166126e55760405162461bcd60e51b815260206004820152602660248201527f4f776e61626c653a206e6577206f776e657220697320746865207a65726f206160448201526564647265737360d01b60648201526084016106b2565b6126ee816128df565b50565b6000806127036402540be40085612dc7565b90506000836001600160a01b031663313ce5676040518163ffffffff1660e01b815260040160206040518083038186803b15801561274057600080fd5b505afa158015612754573d6000803e3d6000fd5b505050506040513d601f19601f820116820180604052508101906127789190612e02565b60ff1690506008811061278d57509050610a0e565b600061279a8260086131b7565b90506127a781600a6132b2565b6127b282600a6132b2565b6127bc9085612dc7565b610a089190612e77565b600060405163a9059cbb60e01b81526001600160a01b03841660048201528260248201526000806044836000895af1915050612801816129f3565b61283f5760405162461bcd60e51b815260206004820152600f60248201526e1514905394d1915497d19052531151608a1b60448201526064016106b2565b50505050565b600084905060006040516323b872dd60e01b81526001600160a01b03861660048201526001600160a01b03851660248201528360448201526000806064836000875af1915050612894816129f3565b6128d75760405162461bcd60e51b81526020600482015260146024820152731514905394d1915497d19493d357d1905253115160621b60448201526064016106b2565b505050505050565b600080546001600160a01b038381166001600160a01b0319831681178455604051919092169283917f8be0079c531659141344cd1fd0a4f28419497f9722a3daafe3b4186f6b6457e09190a35050565b6040516bffffffffffffffffffffffff19606088811b8216602084015287811b8216603484015286901b166048820152605c810184905282151560f81b607c820152607d8101829052600090609d016040516020818303038152906040528051906020012090509695505050505050565b600060128211156129c7576040516342d94fd760e11b8152600481018390526024016106b2565b60006129d48360126131b7565b90506129e181600a6132b2565b6129eb9085612dc7565b949350505050565b60003d82612a0557806000803e806000fd5b8060208114612a1d578015612a2e5760009250612a33565b816000803e60005115159250612a33565b600192505b5050919050565b6001600160a01b03811681146126ee57600080fd5b600060208284031215612a6157600080fd5b8135612a6c81612a3a565b9392505050565b634e487b7160e01b600052604160045260246000fd5b60405160c081016001600160401b0381118282101715612aab57612aab612a73565b60405290565b604051601f8201601f191681016001600160401b0381118282101715612ad957612ad9612a73565b604052919050565b80358015158114612af157600080fd5b919050565b600060c08284031215612b0857600080fd5b612b10612a89565b905081358152612b2260208301612ae1565b6020820152604082013560408201526060820135612b3f81612a3a565b60608201526080820135612b5281612a3a565b608082015260a0820135612b6581612a3a565b60a082015292915050565b60008060e08385031215612b8357600080fd5b612b8d8484612af6565b9460c0939093013593505050565b60008060008060008060c08789031215612bb457600080fd5b8635612bbf81612a3a565b95506020870135612bcf81612a3a565b945060408701359350612be460608801612ae1565b92506080870135915060a0870135612bfb81612a3a565b809150509295509295509295565b80356001600160401b0381168114612af157600080fd5b60008060008060808587031215612c3657600080fd5b612c3f85612c09565b9350612c4d60208601612c09565b9250612c5b60408601612c09565b9150612c6960608601612c09565b905092959194509250565b600060208284031215612c8657600080fd5b5035919050565b600080600060608486031215612ca257600080fd5b8335612cad81612a3a565b95602085013595506040909401359392505050565b600060c08284031215612cd457600080fd5b612a6c8383612af6565b60008060408385031215612cf157600080fd5b8235612cfc81612a3a565b946020939093013593505050565b600060208083528351808285015260005b81811015612d3757858101830151858201604001528201612d1b565b81811115612d49576000604083870101525b50601f01601f1916929092016040019392505050565b6020808252818101527f4f776e61626c653a2063616c6c6572206973206e6f7420746865206f776e6572604082015260600190565b600060208284031215612da657600080fd5b8151612a6c81612a3a565b634e487b7160e01b600052601160045260246000fd5b600082612de457634e487b7160e01b600052601260045260246000fd5b500490565b600060208284031215612dfb57600080fd5b5051919050565b600060208284031215612e1457600080fd5b815160ff81168114612a6c57600080fd5b6001600160a01b03998a16815297891660208901529590971660408701526060860193909352608085019190915260a084015260c083015260ff90921660e08201529015156101008201526101200190565b6000816000190483118215151615612e9157612e91612db1565b500290565b6020808252600e908201526d085b1a5c5d5a591a5d1e541bdbdb60921b604082015260600190565b6001600160a01b03978816815295871660208701529386166040860152919094166060840152608083019390935260a082019290925290151560c082015260e00190565b6020808252600b908201526a08585d5d1a1bdc9a5cd95960aa1b604082015260600190565b60006001600160401b03821115612f4057612f40612a73565b5060051b60200190565b600082601f830112612f5b57600080fd5b81516020612f70612f6b83612f27565b612ab1565b82815260059290921b84018101918181019086841115612f8f57600080fd5b8286015b84811015612fb3578051612fa681612a3a565b8352918301918301612f93565b509695505050505050565b600082601f830112612fcf57600080fd5b81516020612fdf612f6b83612f27565b82815260059290921b84018101918181019086841115612ffe57600080fd5b8286015b84811015612fb35780518352918301918301613002565b60006020828403121561302b57600080fd5b81516001600160401b038082111561304257600080fd5b9083019060c0828603121561305657600080fd5b61305e612a89565b82518281111561306d57600080fd5b61307987828601612f4a565b82525060208301518281111561308e57600080fd5b61309a87828601612f4a565b6020830152506040830151828111156130b257600080fd5b6130be87828601612f4a565b6040830152506060830151828111156130d657600080fd5b6130e287828601612fbe565b6060830152506080830151828111156130fa57600080fd5b61310687828601612fbe565b60808301525060a08301518281111561311e57600080fd5b61312a87828601612fbe565b60a08301525095945050505050565b634e487b7160e01b600052603260045260246000fd5b6001600160a01b0394851681529290931660208301526040820152606081019190915260800190565b6000821982111561318b5761318b612db1565b500190565b60006001600160401b03808316818114156131ad576131ad612db1565b6001019392505050565b6000828210156131c9576131c9612db1565b500390565b600181815b808511156132095781600019048211156131ef576131ef612db1565b808516156131fc57918102915b93841c93908002906131d3565b509250929050565b60008261322057506001610a0e565b8161322d57506000610a0e565b8160018114613243576002811461324d57613269565b6001915050610a0e565b60ff84111561325e5761325e612db1565b50506001821b610a0e565b5060208310610133831016604e8410600b841016171561328c575081810a610a0e565b61329683836131ce565b80600019048211156132aa576132aa612db1565b029392505050565b6000612a6c838361321156fea2646970667358221220478b0a709694758b5cd9a9ced171dbcb4931f5af44120608eb8d4fc8dcf4380664736f6c63430008090033",
  "linkReferences": {
    "contracts/libraries/OpynInteractionsV2.sol": {
      "OpynInteractionsV2": [
        {
          "length": 20,
          "start": 3224
        },
        {
          "length": 20,
          "start": 4143
        },
        {
          "length": 20,
          "start": 4668
        },
        {
          "length": 20,
          "start": 4774
        },
        {
          "length": 20,
          "start": 5214
        },
        {
          "length": 20,
          "start": 6057
        },
        {
          "length": 20,
          "start": 7059
        },
        {
          "length": 20,
          "start": 8698
        },
        {
          "length": 20,
          "start": 9610
        },
        {
          "length": 20,
          "start": 10104
        }
      ]
    }
  },
  "deployedLinkReferences": {
    "contracts/libraries/OpynInteractionsV2.sol": {
      "OpynInteractionsV2": [
        {
          "length": 20,
          "start": 2698
        },
        {
          "length": 20,
          "start": 3617
        },
        {
          "length": 20,
          "start": 4142
        },
        {
          "length": 20,
          "start": 4248
        },
        {
          "length": 20,
          "start": 4688
        },
        {
          "length": 20,
          "start": 5531
        },
        {
          "length": 20,
          "start": 6533
        },
        {
          "length": 20,
          "start": 8172
        },
        {
          "length": 20,
          "start": 9084
        },
        {
          "length": 20,
          "start": 9578
        }
      ]
    }
  }
}